:100000000C9437000C945F000C945F000C945F001C
:100010000C945F000C945F000C945F000C945F00E4
:100020000C945F000C945F000C945F000C945F00D4
:100030000C945F000C945F000C945F000C945F00C4
:100040000C9448050C945F000C9402060C945F001D
:100050000C945F000C945F000C945F000C945F00A4
:100060000C944F020C945F00900103058707112444
:100070001FBECFEFD4E0DEBFCDBF11E0A0E0B1E006
:10008000E6E0F1E102C005900D92AA31B107D9F77F
:1000900011E0AAE1B1E001C01D92A53EB107E1F770
:1000A00010E0CEE6D0E004C02297FE010E947D0859
:1000B000C836D107C9F70E9441050C9481080C94F9
:1000C00000000F931F93CF93DF93689F8001699F78
:1000D000100D789F100D1124C8010E947D00EC01C5
:1000E000009729F060E070E0A8010E947F01CE0136
:1000F000DF91CF911F910F910895CF93DF93BC01B2
:100100008230910510F462E070E0A091E301B091BB
:10011000E401ED01E0E0F0E040E050E021C0888142
:1001200099818617970769F48A819B81309719F026
:100130009383828304C09093E4018093E301FE01E2
:1001400034C06817790738F44115510519F0841740
:10015000950708F4AC01FE018A819B819C01E901AD
:100160002097E9F641155105A9F1CA01861B970BA5
:10017000049708F4BA01E0E0F0E02AC08D919C9168
:10018000119784179507F9F46417750781F412968F
:100190008D919C911397309719F09383828304C0BB
:1001A0009093E4018093E301FD0132964CC0CA01B3
:1001B000861B970BFD01E80FF91F6193719302975E
:1001C0008D939C9340C0FD01828193819C01D90154
:1001D0001097A1F68091E1019091E201892B41F401
:1001E00080910201909103019093E2018093E101DB
:1001F00040910401509105014115510541F44DB75D
:100200005EB78091000190910101481B590B20912C
:10021000E1013091E201CA01821B930B8617970717
:1002200080F0AB014E5F5F4F8417950750F0420F8F
:10023000531F5093E2014093E101F90161937193DF
:1002400002C0E0E0F0E0CF01DF91CF910895CF93BD
:10025000DF93009709F450C0EC0122971B821A82A9
:10026000A091E301B091E401109709F140E050E062
:10027000AC17BD0708F1BB83AA83FE012191319120
:10028000E20FF31FAE17BF0779F48D919C91119780
:10029000280F391F2E5F3F4F3983288312968D9187
:1002A0009C9113979B838A834115510571F4D093D8
:1002B000E401C093E30120C012968D919C911397A5
:1002C000AD01009711F0DC01D3CFFA01D383C283D3
:1002D00021913191E20FF31FCE17DF0769F4888176
:1002E0009981280F391F2E5F3F4FFA0131832083F8
:1002F0008A819B8193838283DF91CF910895DC0172
:1003000001C06D9341505040E0F7089581E0809323
:10031000230160931E011092210110922201089581
:100320000895DF93CF930F92CDB7DEB769838091A5
:1003300023018823A9F0809122018032B0F48091BA
:100340002101E0911F01F0912001E80FF11D608370
:10035000809121018F5F809321018093220105C04C
:10036000CE01019661E00E9432020F90CF91DF91A1
:1003700008950E949101089560911F0170912001DC
:1003800080911E014091220121E00E94ED01109216
:1003900021011092220110922301089580E290E041
:1003A00061E070E00E94610080931A0190931B014C
:1003B00010921C0110921D0180E290E061E070E05B
:1003C0000E94610080931F019093200110922101EF
:1003D000109222010E94D10308951F93582F122FCB
:1003E000413210F081E03CC0809125018823E1F783
:1003F00082E0809325018FEF8093360110922D01CA
:1004000040932E01A0912B01B0912C01FB0102C061
:1004100081918D938E2F861B8417D0F3852F90E0CA
:10042000880F991F8093260185EE8093BC001123CD
:1004300021F0809125018230E1F3809136018F3FD8
:1004400011F480E00DC080913601803211F482E019
:1004500007C080913601803311F084E001C083E051
:100460001F910895482F613210F081E00895809126
:100470002501843011F082E0089560933201A0914B
:100480002F01B0913001842F9C01F90102C08191AC
:100490008D938E2F841B8617D0F380E008951F92D2
:1004A0000F920FB60F9211242F933F934F935F93A8
:1004B0006F937F938F939F93AF93BF93EF93FF932C
:1004C0008091B90090E0887F90708036910509F4A2
:1004D000E2C081369105CCF58832910509F47BC0E4
:1004E00089329105B4F48031910509F46FC08131EE
:1004F00091053CF4009709F438C1089709F040C110
:1005000065C08831910509F466C0809709F038C14B
:100510007FC08034910509F4A3C08134910544F46F
:100520008033910509F47FC0C89709F029C186C0BE
:100530008035910509F486C08835910509F495C088
:100540008834910509F01CC19EC08839910509F4D1
:1005500004C189399105ECF48837910509F49BC0F1
:10056000893791054CF48836910509F494C0803799
:10057000910509F005C18FC08838910509F4EDC0D7
:100580008039910509F48DC08038910509F0F8C0D3
:1005900088C0803B910509F4B2C0813B91054CF4C1
:1005A000803A910509F491C0883A910509F0E8C0B4
:1005B000A6C0803C910509F4D4C0883C910509F49B
:1005C000D0C0883B910509F0DBC0B1C08091260105
:1005D0008093BB00C0C090912D0180912E0198178F
:1005E00078F490912D01E0912B01F0912C01E90F0D
:1005F000F11D80818093BB009F5F90932D01ABC064
:1006000085ED8093BC008091BC0084FDFCCFB6C01A
:1006100080E28093360185ED8093BC008091BC0020
:1006200084FDFCCFABC080E38093360185ED8093E1
:10063000BC008091BC0084FDFCCFA0C088E3809307
:1006400036018FC080912D019091BB00E0912B016C
:10065000F0912C01E80FF11D90838F5F80932D01A5
:1006600090912D0180912E0174C080912D01909167
:10067000BB00E0912B01F0912C01E80FF11D90835C
:100680008F5F80932D0185ED8093BC008091BC002D
:1006900084FDFCCF73C083E0809325011092350167
:1006A0005AC080913501803208F057C080913501E1
:1006B0009091BB00E0913301F0913401E80FF11DFE
:1006C00090838F5F8093350146C0809135018032E1
:1006D00048F480913501E0913301F0913401E80F45
:1006E000F11D108260913501E0912901F0912A01FC
:1006F000809133019091340170E0099532C084E01B
:10070000809325011092310110923201E09127016E
:10071000F0912801099580913201882341F481E00C
:1007200080933201E0912F01F0913001108290917D
:100730003101E0912F01F0913001E90FF11D80812D
:100740008093BB009F5F9093310190913101809124
:100750003201981710F485EC01C085E88093BC0045
:100760000FC085EC8093BC0009C01092360185ED66
:100770008093BC008091BC0084FDFCCF10922501C9
:10078000FF91EF91BF91AF919F918F917F916F9169
:100790005F914F913F912F910F900FBE0F901F903F
:1007A000189510922501449A459AE9EBF0E0808172
:1007B0008E7F808380818D7F808388E48093B800E2
:1007C00085E48093BC0080E290E061E070E00E94EC
:1007D000610080932B0190932C0180E290E061E016
:1007E00070E00E94610080932F019093300180E2BD
:1007F00090E061E070E00E9461008093330190938B
:1008000034010895FC018AE091E091838083628342
:100810004783208711860895CF92DF92EF92FF924F
:100820000F931F936C01062F84E2E82E81E0F82ECF
:10083000C701F60162810E94860110E0F601818500
:1008400090E0082B192BC701B8010E94B901C7011C
:100850000E94BC011F910F91FF90EF90DF90CF900D
:100860000895FF920F931F938C01F62E64600E94EF
:100870000C0481E090E00E94BA058BEFF822C801D9
:100880006F2D0E940C0482E390E00E94BA051F9134
:100890000F91FF900895FF920F931F938C01F62EF6
:1008A0000E940C04C8016F2D0E9431041F910F910A
:1008B000FF900895EF92FF920F931F937C01162FE4
:1008C000042F607F642B0E944B041295107F102B25
:1008D000C701612F0E944B041F910F91FF90EF9071
:1008E000089541E00E945A04089540E00E945A048D
:1008F0000895FC016481862F846084836C60CF013D
:100900000E947504089562E00E94750480ED97E0EE
:100910000E94BA05089561E00E94750480ED97E099
:100920000E94BA050895FC0188E08187CF0160E04C
:100930000E940C040895CF93DF93EC01423018F02D
:100940008B8188608B834E83222329F0413019F4F8
:100950008B8184608B8380E593EC0E94BA05CE0185
:1009600069850E940C0468EE73E080E090E00E94CC
:100970009005CE0163E00E944B0484E991E10E945E
:10098000BA05CE0163E00E944B0484E991E10E9424
:10099000BA05CE0163E00E944B0486E990E00E9414
:1009A000BA05CE0162E00E944B046B816062CE0109
:1009B0000E94750484E08C83CE010E947904CE01EC
:1009C0000E948B0482E08D83CE0166E00E94750454
:1009D000CE010E948304DF91CF9108950F931F935E
:1009E0008C0184E291E00E94CE01F8011382C801DB
:1009F0006781408520E00E949B041F910F9108951C
:100A00000E94EE04089587E391E067E240E122E06E
:100A10000E94020408958EEC91E00E94380788231A
:100A2000D1F064E670E080E090E00E94900587E3FA
:100A300091E00E948B0409C08EEC91E00E944C076B
:100A4000682F87E391E00E9471048EEC91E00E9490
:100A50003807882389F708950F931F9307E311E060
:100A6000C8010E940005C8010E9493048EEC91E029
:100A700040E855E260E070E00E943F061F910F9150
:100A800008950E94C8050E942C050E940B05FDCF09
:100A90001F920F920FB60F9211242F933F938F93B3
:100AA0009F93AF93BF938091450190914601A09190
:100AB0004701B0914801309149010196A11DB11D36
:100AC000232F2D5F2D3720F02D570196A11DB11D2D
:100AD000209349018093450190934601A0934701DB
:100AE000B09348018091410190914201A09143014E
:100AF000B09144010196A11DB11D809341019093D5
:100B00004201A0934301B0934401BF91AF919F91E3
:100B10008F913F912F910F900FBE0F901F901895BE
:100B2000EF92FF920F931F937B018C018FB7F89484
:100B300040914501509146016091470170914801F3
:100B40008FBF2FB7F8948091450190914601A091F5
:100B50004701B09148012FBF841B950BA60BB70B23
:100B6000E816F9060A071B0760F71F910F91FF901F
:100B7000EF900895019759F0FC01EE0FFF1FEE0F63
:100B8000FF1F32978FB7F8943197F1F78FBF089511
:100B9000789484B5826084BD84B5816084BD85B558
:100BA000826085BD85B5816085BDEEE6F0E080811F
:100BB00081608083E1E8F0E08081826080838081D1
:100BC00081608083E0E8F0E0808181608083E1EBF8
:100BD000F0E0808184608083E0EBF0E080818160E0
:100BE0008083EAE7F0E08081846080838081826096
:100BF000808380818160808380818068808310927F
:100C0000C10008951F920F920FB60F9211242F93D7
:100C10003F934F935F936F937F938F939F93AF9384
:100C2000BF93EF93FF934091C600E091CA01F0910A
:100C3000CB01CF01019660E870E00E9417089C018B
:100C40008091CC019091CD012817390739F0E65BEE
:100C5000FE4F40833093CB012093CA01FF91EF9167
:100C6000BF91AF919F918F917F916F915F914F91C4
:100C70003F912F910F900FBE0F901F9018955F928C
:100C80006F927F928F929F92AF92BF92CF92DF929C
:100C9000EF92FF920F931F93CF93DF93EC013A01F2
:100CA0004B01413482E458078FE0680780E0780701
:100CB0000CF07FC060E874E88EE190E0A40193013D
:100CC0000E944C082150304040405040CA01B901B8
:100CD00022E030E040E050E00E944C0859016A01F7
:100CE000A6019501209530954095509594E0220FEE
:100CF000331F441F551F9A95D1F760E074E284EFCB
:100D000090E00E944C08CA01B9012FEF30E040E0AA
:100D100050E00E94F807A40193010E944C08C90109
:100D200081509F4F181619061CF4522E5A9403C076
:100D300055245394521A60E079E08DE390E0A401C9
:100D400093010E944C082150304040405040CA015D
:100D5000B90122E030E040E050E00E944C082095CC
:100D600030954095509583E0220F331F441F551F47
:100D70008A95D1F760E074E284EF90E00E944C081D
:100D8000CA01B9012FEF30E040E050E00E94F807BF
:100D9000A40193010E944C08C90181509F4F18166D
:100DA00019061CF4822F815002C081E0821B851538
:100DB00000F5E885F98581E090E00A8802C0880F97
:100DC000991F0A94E2F7808360E079E08DE390E078
:100DD000A40193010E944C082150304040405040F3
:100DE000CA01B90122E030E040E050E00E944C0826
:100DF00004C0E885F98510829501EC81FD8130837E
:100E0000EE81FF812083EA85FB85208141E050E06F
:100E1000CA010E8402C0880F991F0A94E2F7282B9A
:100E20002083EA85FB852081CA010F8402C0880FD8
:100E3000991F0A94E2F7282B2083EA85FB8580819D
:100E4000088802C0440F551F0A94E2F7842B808360
:100E5000DF91CF911F910F91FF90EF90DF90CF9096
:100E6000BF90AF909F908F907F906F905F9008950C
:100E7000DC011296ED91FC911397E058FF4F8191A0
:100E8000919180589F4F20813181821B930B60E8A4
:100E900070E00E9417080895CF93DF93DC0112964B
:100EA000ED91FC911397EF01CE57DF4F48815981A7
:100EB000E058FF4F80819181E058F04084179507FA
:100EC00019F42FEF3FEF0CC0E40FF51F2081CA018A
:100ED000019660E870E00E9417089983888330E0EB
:100EE000C901DF91CF910895FC01A085B1852189C9
:100EF0008C9190E0022E02C0959587950A94E2F7B6
:100F000080FFF6CF0484F585E02D6083089584E1A9
:100F100091E09093CF018093CE018AE491E0909389
:100F2000D1018093D00185EC90E09093D301809320
:100F3000D20184EC90E09093D5018093D40180ECB1
:100F400090E09093D7018093D60181EC90E090934C
:100F5000D9018093D80186EC90E09093DB018093D7
:100F6000DA0184E08093DC0183E08093DD0187E097
:100F70008093DE0185E08093DF0181E08093E001D2
:100F800008950F931F93CF93DF938C01EB0109C05A
:100F90002196D801ED91FC910190F081E02DC801DE
:100FA000099568816623A1F7DF91CF911F910F9179
:100FB0000895EF92FF920F931F93CF93DF938C01CD
:100FC0007B01EA010CC0D7016D917D01D801ED9143
:100FD000FC910190F081E02DC8010995219720979F
:100FE00091F7DF91CF911F910F91FF90EF900895AE
:100FF000629FD001739FF001829FE00DF11D649FFD
:10100000E00DF11D929FF00D839FF00D749FF00D88
:10101000659FF00D9927729FB00DE11DF91F639F29
:10102000B00DE11DF91FBD01CF011124089597FBFB
:10103000092E07260AD077FD04D049D006D000201B
:101040001AF4709561957F4F0895F6F79095819504
:101050009F4F0895A1E21A2EAA1BBB1BFD010DC0D4
:10106000AA1FBB1FEE1FFF1FA217B307E407F50758
:1010700020F0A21BB30BE40BF50B661F771F881F34
:10108000991F1A9469F760957095809590959B01CA
:10109000AC01BD01CF01089597FB092E05260ED0A6
:1010A00057FD04D0D7DF0AD0001C38F45095409586
:1010B000309521953F4F4F4F5F4F0895F6F790952C
:1010C0008095709561957F4F8F4F9F4F0895AA1B14
:1010D000BB1B51E107C0AA1FBB1FA617B70710F023
:1010E000A61BB70B881F991F5A95A9F78095909555
:1010F000BC01CD010895EE0FFF1F0590F491E02D86
:061100000994F894FFCFF2
:101106002000E5010000000000007104C107D907B6
:0A111600000000007407C107D907AC
:00000001FF
