:020000040000FA
:1000000000400020918C0100CD8C0100CF8C0100BC
:1000100000000000000000000000000000000000E0
:10002000000000000000000000000000D18C010072
:100030000000000000000000D38C0100D58C0100FE
:10004000D78C0100F53F0000D9930100D78C010047
:10005000D78C010000000000918D0100D78C0100B9
:100060007DEF0000399901004D920100D78C01000D
:10007000D78C0100D78C0100D78C0100D78C0100F0
:10008000D78C0100D78C0100D78C0100D78C0100E0
:10009000D78C01007188010031890100F1F0000066
:1000A00001F10000D78C01000000000000000000FA
:1000B0000000000000000000000000000000000040
:1000C00010B5064C2378002B07D1054B002B02D02E
:1000D000044800E000BF0123237010BD2001002070
:1000E00000000000B4850300044B10B5002B03D0C2
:1000F0000349044800E000BF10BDC04600000000F6
:1001000024010020B4850300402292029A1A9246EC
:100110007047C046174B002B00D1134B9D46FFF78D
:10012000F3FF00218B460F461348144A121A28F099
:10013000BFFC0E4B002B00D098470D4B002B00D07E
:1001400098470020002104000D000D48002802D02F
:100150000C4800E000BF20F0F5F82000290028F04E
:1001600041FA20F00DF8C046000008000000000031
:10017000000000000040002018010020E02F0020B7
:100180000000000000000000032130B5040003005F
:1001900001220C40084204D109491D6810008D421B
:1001A0000CD0190001201140134207D10800002C87
:1001B00004D11868034BC01A4342584130BDC046B1
:1001C000E4E3020060B6020010B50400FFF7DCFFB4
:1001D00003000120002B0AD1032218002240022A2A
:1001E00005D103480440063C2000431E984110BD41
:1001F000070080FF044B88600B60044B08004B60D5
:100200000023CB607047C0466896020017120200B8
:1002100010B502F067FB084B42680848D3185942F2
:100220004B41B0215B428B4305495B18054908F0FF
:1002300077F90CF0B7FDC0463AFDFFFFE4A50200D8
:10024000C60200007AF90200F7B504000D00019320
:1002500001208B180A0000210093009B934212D8C2
:100260002726002900D0053E224F32003900200009
:1002700026F0EDFB009B9D4214D332003900200094
:1002800026F0E5FBF7BD1378272B08D0223B5E4212
:100290007341DBB20132002BDFD02726E4E70023D5
:1002A0000100F7E72A78B24205D132001249200056
:1002B00026F0CDFB1AE011495C2A14D01F2A09D977
:1002C0007F2A15D0019B002B02D053B2002B0FDBED
:1002D0003900ECE70A490A2A05D00A490D2A02D05A
:1002E000092A05D10849200026F0EBFA0135C1E7BB
:1002F0000649DCE7A6F90200A5F90200A9F9020007
:10030000ACF90200AFF90200B2F90200B5F902003F
:10031000194B70B506000C0098420FD14968A068CF
:1003200011F06EF8051E09D0200026F029FD0023EB
:100330000620ED0023600543280070BD102025F045
:100340006BFD6168050081600660A06811F03AF8F5
:1003500063686860591C2368994208D1A368EB6000
:100360000023EA68A9685354A3602360E4E7A06807
:1003700025F070FDE860F3E7309A020070B50400E4
:100380000D00002A05D011F071F8C30006201843B3
:1003900070BD11F035F80028F7D12A00210002487D
:1003A00020F015FEF4E7C046309A020010B50A00AE
:1003B0000100024820F00BFE10BDC046508D020027
:1003C000094B10B50340062B01D1C00810BD8307AF
:1003D00008D1064B02689A4204D18168C06811F0C6
:1003E00045F8F3E7FFF714FF070080FF309A02009B
:1003F000064B10B50340062B03D1C00825F031F998
:1004000010BD8368C0680B60FAE7C046070080FF34
:10041000F0B50D00002789B0110006001C0028006F
:1004200003233A00009711F073FF0E20BD420FD056
:10043000012D0FD1102102AA04A815F073FC216828
:1004400002A83A0002F066FA300004A9FFF760FF44
:1004500009B0F0BD2068830722D1164B02689A428A
:100460001ED104A9FFF7C4FF134B05002068034009
:10047000062B13D1C00825F0E5F80400002C04D1A8
:100480002800049910F09EFF04001020049F25F01E
:10049000C3FC06608760C5604460D9E74468EDE747
:1004A00004A9012202F0BCFC002205990498FFF780
:1004B00065FFCDE7508D0200070080FFF0B58DB0DD
:1004C0000400039102F00EFA04A906002000FFF7D1
:1004D0008FFF039B01902F489A0705D11B68834229
:1004E0000AD02D4A934207D0C3680022029301210B
:1004F000029C03ABA04703900024039806AA05A919
:1005000002F078FB2500059BA3420ED829000025A8
:1005100008A826F024FC0A9C059BAB4221D8300099
:1005200008A9FFF7F5FE0DB0F0BD069BA700D8594E
:1005300002F0D8F9864202D018480DF067FC002C72
:1005400001D0049BED18069BD859154B0340062B90
:1005500005D1C00825F07BF82D180134D3E7806859
:10056000FAE7002D06D02000049A019928F084FAB9
:10057000049BE418069AAB00985807A9FFF738FFC8
:10058000079A0100200028F077FA079B0135E4184C
:10059000C2E7C04698E3020090C10200BCF9020025
:1005A000070080FFF0B58BB0049008680C0006923D
:1005B000079302F097F90600606802F093F986420B
:1005C00002D06068FFF724FE08A92068FFF710FF3B
:1005D000050009A96068FFF70BFF089A2F00AB1808
:1005E0000393049B0590022B19D9A3681D498B42E4
:1005F00006D0012130000091290005F0A1FB070081
:10060000049B032B0BD0E368164A934207D00122C8
:10061000290000923000089A05F092FB0390039B9A
:100620003800D91B069B059A0093099B20F0B0FC6B
:10063000011E07D10120079B4042002B0BD00A4826
:100640000DF01EFA094B9E4207D1280022F096F8C1
:100650004100012008430BB0F0BD401B01214000C8
:10066000F8E7C04610B1020001FA0200309A020019
:10067000F0B587B0039008680D0002F033F904A9C3
:1006800007002868FFF7B4FE05A904006868FFF7B3
:10069000AFFE039B06002000022B07D90123210097
:1006A00000933800AB68049A05F04AFB059A041BD6
:1006B0000499A418064B8C4206D8310028F0CEF9D4
:1006C000034B002800D1034B180007B0F0BDC04613
:1006D000D4E30200DCE3020073B50D0006006946B6
:1006E0002868FFF785FE01A904006868FFF780FE0F
:1006F0000100022E02D908480DF0B6FB019A0098BD
:10070000064D824206D8801A201828F0A7F9002842
:1007100000D1034D280076BD15FA0200D4E3020093
:10072000DCE30200F0B58FB0079010680C001600F3
:1007300002F0D8F80690012C31D0706802F0D2F89F
:10074000069B834202D07068FFF762FD70680DA9B6
:10075000FFF74EFE0D9B0890099330680DA9FFF737
:1007600047FE0D9B0B900493079B012B1CD1049B10
:100770005D1E01235B420A9300242700049B03941F
:100780000593059B002B13D1039B002B23D1214BF9
:10079000069A0E209A4200D01F480FB0F0BD0723E2
:1007A00009931E4B0893D8E7012300250A93E3E73A
:1007B0000B9B09995A1901230898009320F0E8FB34
:1007C000002816D1039B002B19D1079B002B09D1C0
:1007D0002F00049B5C1E049B0134E21B934212D148
:1007E0003068DAE7079B2C00012B0AD001232F0089
:1007F00003930A9BED18059B013B0593C1E72C0071
:10080000F7E7039FE7E70B9B0698D91920F0DFFB7A
:10081000C3E7C046309A0200408D020049FE020044
:10082000F0B589B0049008680D0002F05BF807008D
:10083000686802F057F8874202D06868FFF7E8FC62
:1008400006A92868FFF7D4FD060007A96868FFF726
:10085000CFFD069A3400B3180393049B0590022B36
:1008600019D9AB681D498B4206D00121380000918F
:10087000310005F065FA0400049B032B0BD0EB68F4
:10088000164A934207D00122310000923800069A9E
:1008900005F056FA03900025079BAB4212D1039B4B
:1008A0002000191B21F079FF013045000120284369
:1008B00009B0F0BD2000059928F0D0F8002808D133
:1008C00001353400079A039BA6189E42F2D96D00A9
:1008D000ECE7200021F049FF0600F2E710B102002A
:1008E00010B50100014820F061FC10BDBB270200DB
:1008F00010B50100014820F059FC10BDCD270200C1
:10090000F7B50600080001A9FFF772FD019B07007B
:10091000002B01D11248FEBD124B9E420DD0124B4E
:1009200000249E420AD0385DB0470028F2D0019BD7
:100930000134A342F7D80D48EDE700242500385DC7
:1009400004F020F9002803D0385DB047051EE1D03F
:10095000019B0134A342F2D8002DECD1DAE7C04666
:10096000D4E30200ED4B0000054C0000DCE3020084
:1009700010B501000148FFF7C3FF10BD6D4B00002B
:1009800010B501000148FFF7BBFF10BD854B00000B
:1009900010B501000148FFF7B3FF10BD9D4B0000EB
:1009A00010B501000148FFF7ABFF10BDED4B000093
:1009B00010B501000148FFF7A3FF10BD054C000072
:1009C000F0B585B005000C00170001F08BFF6946FB
:1009D00006002800FFF70CFD0500042F23D1009826
:1009E000A30715D1114B22689A4211D1210001AA07
:1009F00010F062FF002802D10D480DF035FA019980
:100A0000029A3000521A691820F0E1FA05B0F0BDE0
:100A1000002301002200300002F022F92B5C0120AB
:100A20005B001843F2E70020F0E7C0463C9E02005E
:100A300027FA020070B50A001C008EB0002900D110
:100A400076E018683B4E03003340062B05D0830741
:100A500026D1394B0168994222D1023A012A64D841
:100A60000AA9FFF7C5FC050020680640062E15D12F
:100A7000C00824F0E7FD0400002C04D128000A99E6
:100A800010F0A0FC040010200A9E25F0C5F92B4BA5
:100A900086600360C56044600EB070BD4468EBE7DB
:100AA000012A42D103001340DBB2002B10D04410C6
:100AB00021000AA826F053F90C9B002122001800FF
:100AC000019327F0F5FF0AA91C48FFF721FCE3E793
:100AD00003A921F03AFB002805D0049A039917488E
:100AE00020F075FAD8E7206802F0FAF81021002803
:100AF00000D0411006A826F022F920680AA90CF0BF
:100B000099FB040020000CF0F7FB002801D106A996
:100B1000DAE701F0CBFFFF2802D909480CF0B0FF5B
:100B2000C1B206A826F069F9ECE706480DF06EF9A7
:100B30000548B1E7070080FF309A0200508D02009F
:100B400058FA020071FA0200408D020073B50400E9
:100B5000080001A91600FFF74BFC0500042E06D182
:100B60000300019A2000074925F071FF73BD2000A2
:100B7000054925F0A6FE012329002000019AFFF770
:100B800063FBF3E78BFA0200CE6A03000A001A4BFC
:100B900073B51A4005000C000340062B08D1401A1B
:100BA000062A24D0E80824F04DFD0600606805E020
:100BB0004668062AFAD1C80824F044FD002E05D064
:100BC000002803D0B04201D0002076BD694628003D
:100BD000FFF70EFC01A905002000FFF709FC009AB1
:100BE000019B01009A42EFD1280027F037FF4342D2
:100BF0005841C0B2E9E7C046070080FF084B07B57F
:100C00000340062B08D0830704D10268054B926984
:100C10009A4201D0FFF7FCFA01A9FFF7E9FB0EBDEC
:100C2000070080FFD11100000A4B13B503400C00F0
:100C3000062B08D0830704D10268074B92699A42B9
:100C400001D0FFF7E5FA01A9FFF7D2FB019B236072
:100C500016BDC046070080FFD1110000F0B59BB063
:100C60000B900591089210210EAA12A8099315F075
:100C700059F8059B089A934208D30B9A12AB13CBF1
:100C800013C21B6813600B981BB0F0BD059B19784D
:100C90005F1C7D290ED1089BBB4208D9059B597862
:100CA0007D2904D112A826F0A8F8059707E0B148DD
:100CB0000CF0E6FE7B2906D012A826F09EF8059BD4
:100CC00001330593D5E7089BBB422ED9059B597884
:100CD0007B29E7D03B007D2903D0212901D03A2987
:100CE00025D100273C0000211A780691212A0BD13A
:100CF00008995A1C914223D95A780692723A012ACD
:100D00001ED80233994210D900211A7805913A2A47
:100D100026D15A1C5B7805927D2B25D00122059B9C
:100D200015E0089A01339A4201D19348C0E71A7836
:100D30007D2A03D0212A01D03A2AF2D11C00D2E721
:100D40008E48B5E719787B2905D10132013308991E
:100D50008B42F7D3E9E77D29F8D1013A002AF5D192
:100D6000059A0593079205E0089B059A9342DCD902
:100D700000230793059B1B787D2B01D0804897E7C4
:100D8000002F48D000233878169303F007FF00287F
:100D90003DD0099B1B680A93002B01DD794887E74A
:100DA00016AA2100380020F0DBF8209A169B013AA1
:100DB00006009A4203D87449744823F09EFC219A95
:100DC00001339B009D580122099B52421A60A642A2
:100DD00031D26F480DF048F80136A64204D233787C
:100DE0002E2B01D05B2BF7D1F11B01223800FFF72E
:100DF000C5FA002207000100229807F0B3FE002880
:100E000007D13900634822F053F80BF0CBFF3E00C6
:100E1000E3E74568DBE7099B1B68002B01DA5E48C6
:100E200046E7209A013A9342C5D2013321999A00AC
:100E30005558099A1360079B002B18D1069B002B6D
:100E400005D0069B733B5A1E9341DBB206931021DB
:100E500010AA16A814F066FF2900069A10A801F03F
:100E600059FD4E4816A9FFF753FA050002E0069B0C
:100E7000002BE6D101235B420D931093079B002BBF
:100E800000D1ACE00BF032FD229B059A0293219B2E
:100E900007990193209B16A80093099BFFF7DEFE9C
:100EA00016A825F098FF0027179B0400C3180A9383
:100EB00003780693BB4208D0394E1900300027F062
:100EC00033FEB84200D16DE1013423782B2B4ED094
:100ED00000262D2B02D0202B01D10436013423789B
:100EE000232B02D1133B1E4301342378302B07D12F
:100EF000069A002A01D13D320692002F00D11F0030
:100F000020000A990DAA20F02BF8037807902C2BCB
:100F100004D10C3B1E43030001330793079B1B784E
:100F20002E2B06D107980A99013010AA20F018F844
:100F30000790079B1C78002C38D02100194827F017
:100F4000F3FD002803D0079B5B78002B2ED01648BA
:100F5000AEE63900300027F0E7FD002804D03B0062
:100F60000234069F0693B0E707000690ADE702261D
:100F7000B4E7C04690FA0200D1FA0200B8FA0200C3
:100F8000E9FA02000DFB020057FB0200D8A20200A2
:100F900070FB020014A302008DFB0200309A0200D5
:100FA000D7FB0200DCFB0200ECFB020016A825F0D8
:100FB000E7FE069B002B08D12800FFF705F93E232A
:100FC0000693002801D1023B0693002F00D1203761
:100FD00006231E420BD0732C05D1754868E6079E88
:100FE00034003700E8E7632C01D1724860E6069BC5
:100FF0003D2B20D05E2B20D03C2B01D13B3B1E4310
:101000002800FFF7C1F8002869D0782C09D8612C96
:1010100015D8472C25D8442C61D8002C48D0252C35
:101020005DD0280021F07AF822000300624963486D
:1010300007F076FAE9E64023E1E78023DFE72000C6
:1010400062381628EDD818F087FD1825334A4A4A29
:10105000ECECECECECEC333CECECECECECECECEC39
:101060000E00582CDDD10022230003920D9A173B6D
:10107000029201971022009607E0002303930D9B34
:101080000222029361230197009629000EA813F013
:101090003DFE14E6280001F009FD0D9B16A908701D
:1010A00001220193330000970EA813F0CFFD06E64E
:1010B000002303930D9B0A2202930197612300965C
:1010C000E3E7F30602D580239B001E43002303932E
:1010D0000D9B08220293019761230096D5E7280013
:1010E000FFF772F8002839D0002C23D06E2C21D0C5
:1010F000252C21D0242C16D9472C10D8442C12D9B9
:10110000280001F039FD109B220002930D9B011C69
:101110000193330000970EA825F04EFCCFE5230085
:10112000653B022BECD9280020F0F8FF22000300D9
:1011300023497CE76724E3E72800802401F01CFDB5
:10114000204919F07FFB109B640002930D9B3443F0
:10115000019366222300011C0097DCE7069B3D2BD0
:1011600001D11948A4E5002C01D0732C13D116A984
:101170002800FFF759FD109B0100169A002B00DA9A
:101180001092109B9A4200D916930D9B169A0193C8
:101190000097330088E7280020F0C0FF22000300FA
:1011A0000A4944E76778002F00D0D2E606978CE61C
:1011B00005FC020031FC020064FC02005CA6020097
:1011C00095FC02000000C842C9FC0200FEFC0200BF
:1011D000F0B5A1B005000C000D920A2800D0F7E18F
:1011E0000DAB0F93012315001093032305921D40AF
:1011F0001A423CD11368B24A934206D105980FAA0D
:1012000010A924F0C2F9059502E0AE4A9342FAD142
:10121000109B200007930F9B11A90893FFF7E8F894
:10122000002309900A93A30705D1A74A23689B1AB4
:101230005A425A410A9214AA102118A814F072FDB9
:10124000119A00279446099B099C63440493049BCC
:10125000A3420FD8079B9D48BB4229D10A9B9A48BD
:10126000002B00D19A4818A9FFF752F8C9E10023D2
:101270000593CDE72178252904D018A825F0BDFDD8
:101280000134E4E7049B661CB34202D891480CF099
:10129000F7FB6178252904D118A825F0AEFD3400AC
:1012A000EEE70025282915D1059BAB4202D18A48DB
:1012B0000CF0ACFDA01C06003378292B23D1311A89
:1012C0000122FFF75BF8010005980FF0AFFA012744
:1012D000050001360023340040220026302104207E
:1012E0000B9320330693049BA34213D8002312933D
:1012F000049BA34231D923782A2B6DD1079BBB4293
:1013000021D87648D4E7049BB34201D17448BEE7A4
:101310000136D1E723782D2B03D12C3B1E4301341A
:10132000E1E72B2B01D1293BF8E7202B01D1064324
:10133000F5E7232B04D0302BD8D116430691EEE7E6
:1013400010230B93EBE77B1C0C93089BBF00F85812
:1013500001F0ACFB0C9F1290013401235B4213930C
:10136000049BA34292D923782E2B17D1049B601C97
:1013700083428BD963782A2B35D1079BBB42C0D9D6
:101380007B1C0C93089BBF00F85801F08FFB0C9F4F
:1013900013900234049BA34200D877E7002D06D1B6
:1013A000079BBB42ADD9089ABB009D5801372278F4
:1013B000472A45D8442A48D9280001F0DDFB139B71
:1013C00022780293129B011C0193069B14A80093A0
:1013D000330025F0F1FA53E72000049912AA1FF018
:1013E000BFFD0400B9E70023049913AA13931FF06B
:1013F000B7FD0400CEE7202827D818F0C1FBDC0099
:1014000026002600260026002600260026002600AC
:101410002600260030007D00DDFFDDFFDDFF260019
:101420007D00260026002600260026009B002600C0
:101430002600AB00AB0026007D0026002600DC0065
:1014400010005838C3B2202BD5D9099B2549E41A7E
:1014500025481300009407F063F80BF0A3FC234B1E
:101460002B40062B05D0AB0716D1194B2A689A42A0
:1014700012D11CA92800FFF7D7FB1C9A0100012AF2
:1014800001D01B4814E7129B0193202300933300E3
:1014900014A813F0DBFBF3E62800FEF775FE002826
:1014A0000BD0280001F002FB129B1CA908700193CD
:1014B0002023012200933300EAE70E48F8E6C046F5
:1014C00090C1020010C10200508D0200F5FD020023
:1014D000309A020030FD020042FD02006FFD020062
:1014E00059FD0200C0FD02005CA60200070080FF5B
:1014F00096FD0200AFFD020003222B001340022BD9
:101500000AD17C4B2B40062B06D0FF23DB05E818C5
:1015100090430BF089FA0500139B0A220393129B58
:1015200000960293069B01936123290014A813F0EF
:10153000EDFBA5E60B9B002B02D084239B001E43F2
:10154000139B08220393129B00960293069B019320
:101550006123EAE7102116AA1CA814F0E3FB237804
:101560001A00723A51424A41D2B2722B09D00A9BF8
:10157000002B06D0AB0704D15F4B2968994200D1FC
:101580000422290016A801F0C5F9139A1D9B002A10
:1015900000DA1393139A9A4200D91A00129B1E99EB
:1015A0000193202314A80093330013F04FFB1CA8D1
:1015B00025F0E6FB64E61300139A173B0392129A98
:1015C0000292069A01920B9A164300961022ACE7FB
:1015D000080001F087F916A906002000FEF708FFB1
:1015E0000590072D20D10D9818A901F09DFA00282B
:1015F00007D01899002906DC404B0E209E4200D0EF
:101600003F4821B0F0BD169B1CA8594325F0A7FB0D
:101610001E9B0121059804930093169A189B24F0B1
:1016200078F830001CA91FE60D9801F05BF986429E
:101630000FD10D981CA9FEF7DBFE1C9F04901D2DF9
:1016400017D8182D4ED8052D21D0122D1FD00020CF
:10165000D7E7294B0D989E4209D101221CA920F001
:1016600074FD0028CDD01C9B1D9F0493E7E7FEF777
:10167000CFFD1F2DEBD10123049A009316993B0057
:1016800005981FF085FC00282AD11E48B9E7169B53
:10169000002B07D10D9801F025F9864202D10D9C4F
:1016A0002000AEE7002FFBD0169B1CA8F91825F0F0
:1016B00056FB1E9B169A18000599069327F0DCF935
:1016C0001E9B3A0018000593169B04999C466044A3
:1016D00027F0D2F930001CA9FEF71AFE0400DFE75C
:1016E00009488EE72800049B169A0599009724F074
:1016F00046F8C8E7070080FF508D0200309A0200CC
:10170000408D0200D4E30200DCE30200F0B50500E6
:1017100087B008680C0001F0E5F80090012D28D989
:101720006668022D26D0A06801F0C0F905000021EE
:10173000080024F0A7FF04A901902068FEF758FED6
:10174000049B0400C7183E4B9E4241D1BC422AD2A2
:10175000207803F00BFA00280FD1002D0FD12100C3
:1017600000983A1B1FF033FC0100019812F03AFA7E
:1017700019E0334E01256D42D9E70134E6E7260032
:10178000307803F0F3F9002802D10136B742F7D8D8
:1017900021000098321B1FF01AFC0100019812F082
:1017A00021FAB74208D8019807B0F0BD0136B74218
:1017B00002D1002D07DCF6E7307803F0D7F90028D6
:1017C000F4D1002D00DD013DB742ECD93400C4E76F
:1017D000300001F087F8009B834202D03000FEF712
:1017E00017FD300005A9FFF71FFA059B0390002B9A
:1017F00013D114480CF044F93E0021000098321B2C
:101800001FF0E5FB0100019812F0ECF9BE42CAD2CC
:10181000059BF418002D00DD013D2600059B029379
:10182000002DE9D0029BF3189F42E5D33000029AC5
:10183000039927F013F90028DFD00136F0E7C046FE
:1018400010B102002AFE0200F0B507000C0089B0BA
:10185000022807D821003800FFF758FF04002000B5
:1018600009B0F0BD086801F03DF806A902902068B3
:101870006568FEF7BDFD0090A06801F017F9061E2F
:10188000E8DB431C18000021039324F0FBFE2C4BE3
:1018900004009D4202D12B480CF0E6FA280007A96B
:1018A000FFF7C2F9079B0490002B02D126480CF0E9
:1018B000E7F8069A35009446009B63440193079F1E
:1018C000019BDE1B002D0BD0009BB34208D83A00D1
:1018D0003000049927F0C2F8002821D0013EF1E73A
:1018E000E368AE00009A9F19019B009902989A1A2A
:1018F0001FF06DFB3860002DB1D0039B5D1BE368CA
:10190000AF0099193A00180027F0BFF8636800216A
:101910005A1BE3689200D81927F0CAF8A5609EE721
:10192000E268AB00D3180593019B02989A1BD21B67
:10193000F1191FF04CFB059B013D18600196BEE7B5
:1019400010B102003AFE02002AFE020070B50C003F
:101950008AB0050004A920681600FEF749FD00239F
:101960000593049B0100C218029605AB06A80194DA
:101970000095FFF773F906A90248FEF7C9FC0AB003
:1019800070BDC046309A02000A0093685268C96868
:101990009B1A5B1810B50400581C002900DD581E66
:1019A00018F082F90300002C08D00020012C09D186
:1019B000D843C01718404000204303E00248002BE2
:1019C00000DC024810BDC046DCE30200D4E30200A4
:1019D0000300080010B5044C04330ECB04604160D2
:1019E0008260C36010BDC046708F0200F0B50E006B
:1019F000002785B011001D000122032303900097EA
:101A0000300010F085FC102024F006FA039B04003F
:101A1000036001234760C36028689E4205D101F03E
:101A200045F8A060200005B0F0BD01F03FF860600F
:101A3000686801F03BF8A060032EF3D1A86801F0BC
:101A400035F8E0600028EDD101480CF019F8C046E7
:101A500050FE020070B50D004A688B68084904000A
:101A600024F0F5FFEA68012A04D12000054924F09A
:101A700028FF70BD2000044924F0E9FFF9E7C046C3
:101A80005AFE02006600030067FE0200136810B5EC
:101A90001400002B05D1A52904D1406823F076FC61
:101AA000206010BD7423FF33994201D18068F5E7AF
:101AB000024B9942F5D1C068F0E7C046C50200006C
:101AC00030B504000D00002087B0042A30D1A3688F
:101AD0006268E1689B1A5B18581C002900DD581EDB
:101AE00018F0E2F8C343DB171840AB0722D1184BBC
:101AF0002A689A421ED1290003AA0FF0DDFE1020A9
:101B000024F08AF9134BE2680360039B6168534336
:101B10005B184360049B6168019353435B1805990C
:101B200083604A43C260002902DAE2689B1A83603C
:101B300007B030BD002301002A00206801F090F8B2
:101B4000E36858436368C018012340001843EFE777
:101B50003C9E0200348F0200030000209A0708D147
:101B60001B68044A0130934203D00348181A4342C9
:101B700058417047E88F0200AC8F0200044B886028
:101B80000B60044B08004B600023CB607047C046DD
:101B9000689602005713020030B585B005000800B2
:101BA00069460BF047FB040020000BF0A5FB011E6B
:101BB00002D1054805B030BD0022281D21F07EFA73
:101BC0000028F1D00148F5E7DCE30200D4E302008D
:101BD00070B50500102024F01FF90400074B696858
:101BE00008C021F061FAAB68E968A3606B68E0683F
:101BF0009A0026F041FF200070BDC046E88F020029
:101C000010B5830707D1044B02689A4203D10349F8
:101C1000034822F072FD10BDAC8F02006DFE020081
:101C200034A1020070B50D000400FFF7E9FF2900A0
:101C30000122201D21F042FA004870BD10B10200BF
:101C400070B50D000400FFF7DBFF29000222201D04
:101C500021F034FA004870BD10B1020070B50600E2
:101C600008680C000125FFF7CBFFB54201D30448FB
:101C700070BDAB00E15820681FF004FB0135F4E7AC
:101C800010B1020070B50D000400FFF7B9FF280085
:101C900000210BF0CFFA050028000BF02DFB011EF0
:101CA00001D1034870BD0322201D21F007FAF3E79C
:101CB00010B1020010B50400FFF7A2FF201D21F0B3
:101CC000A9FA014810BDC04610B1020010B50122AA
:101CD0001FF008FB004810BD10B1020070B50400F1
:101CE0000D00FFF78DFF02222900201D21F0E6F9EB
:101CF000002804D1034821F0D5F80BF053F802482E
:101D000070BDC04614A3020010B1020010B504005B
:101D1000FFF776FF201D21F05EFA002803D102496B
:101D2000024822F0EAFC10BD8FFE020014A302005C
:101D3000F7B504000E0000258B0704D10B68214D78
:101D40005D1B6B425D41B368002B0AD1002D03D0AF
:101D500020001D4924F0B5FD1C49200024F0B1FDF0
:101D6000F7BD002D03D02000194924F0AAFD200062
:101D7000184924F0A6FD0123002701937368BB4294
:101D800007D82000144924F09CFD002DE8D0134909
:101D9000E3E73900F0681FF0D6FA00280FD0019B66
:101DA000002B03D120000E4924F08BFDF168BB000D
:101DB00059580122200000F0ADFD002301930137A6
:101DC000DCE7C046AC8F0200A5FE0200ACFE0200BC
:101DD000B2FE0200BDFE02005A04030066000300CA
:101DE000BFFE0200F7B503000C0001280AD002284C
:101DF0000CD00020834204D18B681648002B00D100
:101E00001548FEBD886840001843FAE703230E001A
:101E100000201E401942F4D1104B0D6830009D4245
:101E2000EFD14B680193019BB34203D101206D00B8
:101E30002843E6E7E768310038001FF084FA0028FD
:101E400006D0B3000220D9590BF08CF840102D18A1
:101E50000136E8E7DCE30200D4E30200AC8F0200C5
:101E6000F7B505001020019123F0D6FF07000A4BBB
:101E7000040008C72900380021F016F90026AE42F8
:101E800001D12000FEBD0199B30001223800C958DC
:101E900021F014F90136F2E7E88F0200F7B50500EA
:101EA0000E00171E2CD0FFF7ABFE194CB5422DD0FB
:101EB00000210800FFF7D4FF0021040030000BF0E0
:101EC000B9F9019001980BF017FA061E0CD1002FFA
:101ED0001CD0E86823F0CFFF63686B60A368AB6039
:101EE000E3680B4CEB6011E000223100281D21F06B
:101EF000E5F80028E6D031002000FFF793FEE1E787
:101F00008842D5D128001FF0CFF904002000FEBD83
:101F100010B10200F0B589B0040003900291019263
:101F20000027FFF719FEB84207D13A0001212248E5
:101F300003AB1FF039FA04000137029D0026280088
:101F4000FFF70AFEB04207D1320001211A4802AB66
:101F50001FF02AFA05000136019B002B05D0002353
:101F6000AA680193A36893420DD0144B069404937E
:101F7000134B05930023079304A81FF0ECF9011EEF
:101F800012D101230193002F02D02000FFF792FE0F
:101F9000002E02D02800FFF78DFE019B0948002B80
:101FA00000D1094809B0F0BD0022281D21F086F8B3
:101FB0000028E1D10190E6E7E88F02006896020070
:101FC00057130200DCE30200D4E3020073B5030000
:101FD0000C0015000026009101928A0704D10A68BE
:101FE000394E961B7242564132001F2B00D969E0D0
:101FF000180017F0BBFD2810176767671C67676735
:10200000676767212D346767673B67676767674066
:10201000464A5358675D290020001FF056F9040016
:10202000200076BD290020001FF0B3F9F7E76946CC
:1020300002201FF083F9F2E7002E04D06946022047
:10204000FFF70CFEECE7290020001FF034F9E6E76B
:1020500029002000002EE0D0FFF714FEE0E7290061
:102060002000FFF71BFF002EDAD1D8E769460220D7
:102070001FF038F9D3E7012229002000FFF74AFFBB
:10208000CDE7012221002800F8E72800FFF764FDD2
:10209000002815D0A368AA68934211D12900200016
:1020A0001FF0B3F9BBE7290020001FF0A6F9B6E73F
:1020B000201D0022290021F001F8044C0028AFD196
:1020C000034CADE70024ABE7E88F0200DCE302003D
:1020D000D4E30200F0B50E0049680500170085B092
:1020E000002901D0002A05D1310028001FF0A9FAEB
:1020F00005B0F0BD0F321309C91800930F241FF06B
:1021000014FA38007368AA68B16801932040274226
:1021100000D11020009C019BE718224C23003C19A1
:10212000640012191C00019B03921A1952008A18AC
:102130009446039A1024029219000022241A0029BE
:102140001FD1E2400124019B03985B00C31A1A804F
:10215000009AA41A64001C19013A2000520026F0CB
:10216000A7FC023C002F03D07B00E35A002B17D0C2
:1021700001216F6032782B780A408B4313432B7018
:10218000B6E760460088029B02431000E040023B35
:102190005880029302235B42120401399C44CEE72B
:1021A000013FDFE7FFFFFF7FF0B54B681500526886
:1021B00006000C0089B0934201D22C000D000121D1
:1021C000227863680A4201D12A781140C918300088
:1021D0001FF0ABF9B36822780193A368170002934C
:1021E000636829789C46AB684F400393012318002D
:1021F0001F408B436146904302000693019B04936A
:102200006B685B1A0793002917D163465900019B3D
:102210005918002F02D001230B80023101981FF0C2
:10222000F9F8012170602B7822785A4033780A40FF
:102230008B431343337009B0F0BD029B12481B88D7
:1022400001391B189B180593079B5B18994219D3FA
:10225000039B039A1B8802321B180392069A9B1851
:10226000059A5A4092B21B0CD7190693049A059B03
:1022700017801A0C049B3F0C02330493029B023319
:102280000293C0E7004BE9E7FFFF0000F0B505004F
:1022900000270C0093B0059353680492591C0093D7
:1022A0001FF043F9049B00215B68A8685A1C520088
:1022B000009326F0FDFB049B6F605B682000591CB7
:1022C00000931FF032F9200004991FF0BAF9A368B7
:1022D00066680193059B31009B6801980293059BFA
:1022E000029A5B680393AB680693039B1FF056F951
:1022F000B84223D10123069A606013806B60049B6F
:102300001A78059B1B785A4001231A4214D02A7868
:1023100013432B706368002B0ED001210FA8494294
:102320001FF0ADF9290028000FAA1FF0A1FB210022
:102330002000059A1FF09CFB13B0F0BD002801DAC5
:102340006F60DCE7824A039B00979B185B009C460A
:102350006246029B63440793029B9B5A1AB2002A6F
:1023600061DA0021019A7300D718721C1026398097
:1023700008926260019A0233D3180993009BF31A02
:102380000A93099B9A4255D3079B009A1B88934056
:102390000793039B012B0AD91022029B00996344E7
:1023A000023B1B88521AD340079A1A430792039A9A
:1023B000089B9B1A664A6B609B18069A5B00D318B1
:1023C0000A93634602330D9363680B930B9A039B46
:1023D00093423AD313005E4A102194460026019A94
:1023E00063445B00D318009A891A019A9A4200D874
:1023F000A0E06B68002B07D0554A06999A18520046
:10240000525A002A00D19FE06368002B00D176E782
:102410004F4A01999A185200525A002A00D06EE78A
:10242000013B6360F0E7009F5B000137BAB29BB2EB
:10243000009293E71088009E0300B34019430A9B63
:102440001180D840023281B29BE73888BB1E1B88BE
:1024500000041843079917F09DFB00220D9B84464A
:10246000FB1A18000C93029B09920893874212D81A
:102470003B889A4235D3D01A010C80B29B1A421E77
:1024800090413B80091800292DD0029B0C9808939D
:1024900000231E0043E0099B190C089B1E88009B2B
:1024A0009E406B460E430996998C634659430388B8
:1024B000994202D25E1A96420ED8D31ACB185942CC
:1024C0001A0C9BB25E1EB34189B2D218089B0180E0
:1024D000023302300893C9E79B1A591A002289B2C5
:1024E000F4E79B1A3B8062460A9B023F1A80023B3C
:1024F0000A930B9B013B636066E7320C0992089AD2
:10250000009E1288B240099E16430288D318B2B2C8
:10251000D318089A038002321B0C023008928742BB
:10252000EBD83A88D3183B801B0CC91A01235B42B5
:102530009C44A8E71A88009F100038418A40304325
:10254000188096B2023B50E7013B6B6051E7C046F2
:10255000FFFFFF7F10B54A68014924F078FA10BDEB
:10256000564E030010B50400002906D0044B8A6BB8
:1025700003600968002306F041F820000AF012FC0D
:102580006CA50200F0B5040087B01000039202931E
:102590006618002A06D00238222803D935480BF0E5
:1025A0006FFA0134B44229D2207802F0DFFA071E14
:1025B000F7D123782B2B1CD101342000311B03AA27
:1025C0001FF078FF23181C0000250193B44217D395
:1025D000002F00D06D42680001250543019B9C42FD
:1025E0002FD12549039A254805F09AFF0299FFF754
:1025F000B9FF2D2BE1D101270134DEE70027DCE70D
:1026000023781A00303A0092092A07D9202213436E
:102610001A00613A192ADBD8573B00930399009BB3
:102620009942D5D9280005F02BFC002816D1039B30
:102630005D43009BED186B006B400FD40134C5E780
:102640000134B44205D2207802F090FA0028F7D184
:10265000C7E7B442C5D1280007B0F0BD019B3A00DE
:102660000593F11A05A8039B22F0B6FE059C050010
:10267000B4E7C046C2FE0200E5FE02005CA602000E
:10268000F0B504008BB0079209934718BC4200D301
:1026900003E1207802F06AFA0290002837D123780B
:1026A0002B2B36D1030001340593BC4200D3F6E056
:1026B000202623783343692B32D1A31C9F4200D8B4
:1026C000E4E0637833436E2B00D0DFE0A37833433C
:1026D000662B00D0DAE0E31DE51C9F4214D9E378B5
:1026E0003343692B10D1237933436E2B0CD163799B
:1026F0003343692B08D1A3793343742B04D1E37995
:102700003343792B00D10535FF26F6051AE0013455
:10271000BCE7029A05922D2BCAD101342C3BC3E7AA
:102720006E2B1AD1A31C9F4200D8AFE063783343CD
:10273000612B00D0AAE0A37833436E2B00D0A5E034
:10274000614EE51C059B002B02D080231B06F6186A
:10275000AC4200D082E05D4992E0002308930393ED
:102760005B4B2500069300230193002304936B1C0D
:1027700000932B781800303809282BD8019B022BA6
:1027800009D1039A083353431B180393009B9F42BC
:102790004DD9009DEBE718F0ADFB019B051C012B0B
:1027A0000DD1069918F04EF8011C049817F0E4FCBE
:1027B00047490490069818F045F80690E6E7454921
:1027C000049818F03FF8291C17F0D6FC0023049059
:1027D0000193DBE7019A002A03D12E2B04D10123B8
:1027E000F6E7019A022A19D032001A43652A15D158
:1027F000009B9F4259D96B782B2B06D1AB1C0093C1
:10280000009BBB42A7D00223E2E7022201922D2BBC
:10281000BFD1AB18009301230893F1E7079A002A70
:1028200007D0202213436A2B05D1079B0293009DFA
:1028300001E0079B0293089B002B02D0039B5B42A5
:102840000393039818F008FB011C22481AF0B0FE0D
:10285000049917F0F7FF061C74E70135BD4205D255
:10286000287802F083F90028F7D174E7BD4200D040
:1028700071E7099B002B02D1029B002B1BD016494C
:10288000164820F01CFB1099FFF76CFE059B002BEF
:1028900000D160E72500002657E7002305930023B9
:1028A0000493002325000293CAE7009B1D009F426A
:1028B00000D150E7BFE7032302209E43084B30437B
:1028C000C0180BB0F0BDC0460000C07F2AFF020058
:1028D000CDCCCC3D000020410DFF02005CA60200E3
:1028E0000000808003000748DA070AD4064A074838
:1028F0001A40062A05D0032205481A40022A00D0B1
:102900001868704760B60200070080FF309A020026
:10291000DCA9020070B50D000400160009F0E6FF06
:102920002800FFF7DFFF8368002B04D03200290066
:102930002000984770BD42680249200024F087F8C3
:10294000F8E7C04644FF020010B50A000100024843
:10295000FFF7E0FF10BDC0462CE60200F7B504000B
:1029600008000E0020F0AFFA00280FD069463000B2
:1029700001AA05F077FE009B002B07D02000154927
:1029800023F09FFF009BDD1E002D09DA310002229B
:102990002000FFF7BFFF20000F4923F092FFF7BD93
:1029A000019AAF00D3195B68D25920000B4924F07B
:1029B0004EF8019BDF19BA68002A05D120000649AC
:1029C00023F07FFF033DDFE72000054924F03FF8B7
:1029D000F8E7C04649FF0200596003006DFF02009E
:1029E00082FF020010B50400FFF77CFF054B006971
:1029F000984203D0431E9841C0B210BD200021F080
:102A0000B3FDFAE711C1000070B505000C0001200C
:102A10008D4203D0214B9D4201D1002070BD9942CF
:102A2000FBD001231D4204D01942F6D12B000D002A
:102A30001C002A001A4B1A40062A05D0AA0711D1F9
:102A4000184A296891420DD12340062B05D0A307CF
:102A5000E3D1144B22689A42DFD121002800FEF70F
:102A600095F8DBE72340062BD7D0A30703D10D4B06
:102A700022689A42D1D02800FFF734FF8369002BE7
:102A8000CBD0220029001B2098470028C5D0064B38
:102A9000C01A43425841C0B2C0E7C04610B102005C
:102AA000070080FF309A0200DCE30200104B10B5F3
:102AB000984219D00F4A0123904217D0184201D0F2
:102AC000184110BD830706D10B4B02689A4202D110
:102AD0000DF05CFBF5E71FF021FB084902000848F8
:102AE00005F01EFD0AF05EF90020EAE71800E8E7AD
:102AF000D4E30200DCE3020060B602008BFF0200B8
:102B0000E4A5020010B5C30705D4830706D1054B21
:102B100002689A4202D122F076FC10BDFFF7C6FF90
:102B2000FBE7C04660B60200104B70B50D000124F3
:102B3000984203D100230B6022000AE00C4B98421C
:102B400001D10C60F8E702002240204203D040107F
:102B50000860100070BD8307FBD1064B01689942E5
:102B6000F7D10DF013FB2860E6E7C046D4E302007E
:102B7000DCE3020060B60200184B10B5984228D082
:102B8000174B984227D0C30703D5401018F064F9BB
:102B900010BD0323184206D1124A0168914202D1A6
:102BA00022F03AFCF4E702001A40022A08D10E4A49
:102BB0000240062A04D0FF22D20580189843E7E796
:102BC0001FF0ACFA09490200094805F0A9FC0AF017
:102BD000E9F80020DCE7FE208005D9E7D4E3020015
:102BE000DCE3020060B60200070080FFA3FF0200E2
:102BF000E4A5020010B583070CD103680A4CA34278
:102C000002D122F0C2FC10BD084CA34202D123F035
:102C100050FDF8E71FF082FA05490200054805F06B
:102C20007FFC0AF0BFF8C04690C1020098E30200A2
:102C3000BDFF0200E4A5020013B50C0001A9FFF7D7
:102C4000D9FF019BA34206D022000349034805F0A7
:102C500067FC0AF0A7F813BDE0FF02005CA60200C3
:102C6000F7B506000D0014001F00D3070FD5541050
:102C70000194019B002B01DA5B190193019B002F4A
:102C80001BD0002B15DA002301930198FEBD100024
:102C900001A9FFF749FF0028EBD1200075681FF05C
:102CA0003DFA2A0003000A490A4805F039FC0AF0F7
:102CB00079F8AB42E9D90195E7E7002B01DBAB429C
:102CC000E3D372680449054805F02AFCEFE7C046E3
:102CD0000D000300E4A5020031000300D8A20200A9
:102CE00010B50400830710D10D4B02689A420CD135
:102CF0000C4B0340062B06D1C00822F0A8FC430071
:102D00000120184310BD8068F9E72000FFF7EAFDB5
:102D10004369181EF6D0210001209847F2E7C0460B
:102D2000508D0200070080FF164B70B50400002094
:102D30009C4203D0144DAC4201D1012070BD134B15
:102D400000209C42FAD00123260060101E401C4245
:102D500015D12000FFF7C6FD4369002B09D02100E3
:102D600030009847002804D0401B43425841C0B26D
:102D7000E4E72000FFF7B4FF0028DED00138431E4F
:102D80009841F4E7D4E30200DCE3020010B1020052
:102D900010B50400FFF7A4FF002809D120001FF0A0
:102DA000BDF904490200044805F0BAFB09F0FAFF36
:102DB00010BDC04647000300E4A5020070B5040042
:102DC0000E001500FFF78EFD036A002B05D02A00C8
:102DD000310020009847002818D120000C4E002D0B
:102DE00008D11FF09BF902000A49300005F098FB5A
:102DF00009F0D8FF042D04D11FF090F90649020014
:102E0000F3E71FF08BF905490200EEE770BDC046FD
:102E1000E4A502006800030093000300B40003006F
:102E200010B51FF092F9002802D102480AF0EEFF17
:102E300010BDC046E100030070B5050000291ADB93
:102E4000032912DC00240D4B5E5CB5210902280029
:102E500031431FF094F9002C04D009492800214384
:102E60001FF08DF9AE61EC6170BD01230239994309
:102E70000C00FE26E9E70024F226E6E7060103003F
:102E800080B0000010B50D4C206824F0A4FA002892
:102E900007D00B4B1B78002B03D1206803685B68BD
:102EA00098470023074A1370074A13700CF0BEF9C5
:102EB0000CF082FE11F0E2FD10BDC0465C2900203E
:102EC000332F0020322F0020A12F002070B50500E5
:102ED00094B0002804D13F481DF0E4FA14B070BD4E
:102EE00008A809F039FF041E19D12E68290004A88A
:102EF00001220EF0D3FE23002200310004A808F0C6
:102F000087FC0400032001F0B9F9200021F0A9FB9F
:102F10000120404201F0B2F909F03CFFDEE7012058
:102F2000404201F0ABF909992B48FFF717FD0998CA
:102F3000FFF7D8FC2949040009F0DCF90028CDD1BD
:102F40002000274909F0D6F90028C7D1099C694615
:102F5000200001AA05F086FB322102AA04A812F083
:102F6000E1FE009B022B05D9019B1E495A6802A86D
:102F700023F06DFD2000FFF7B5FC1B4BC2689A42A1
:102F800010D1236819495A6802A823F060FDE3684C
:102F9000002B07D05A68002A04D00022996802A8A2
:102FA000FFF7B8FC032001F069F904A823F013FF30
:102FB00006F036FF04A823F0E3FE0120404201F0B2
:102FC0005DF90B4B9A6C002A00D187E700229A64C6
:102FD00084E7C0460A0103002CE60200A8A502000F
:102FE00050A3020037010300DD830000400103000D
:102FF000102A0020F8B54E4C1321200025F0C9FA04
:103000002000032125F077FB4A4C012313212000E7
:10301000494A15F037FF01220221200015F062FF16
:10302000464C200013F00CF9454F3860200013F097
:1030300027FB444D2860102025F0AFFC04002968D0
:103040000025414E3A68330013F00CFD3F4B1C60E5
:103050003F4809F02BFCE120C00009F037FC3D4956
:103060003D480BF0B9FA09F0BDFE06F055FE02F03E
:10307000F5FB12F04BFF300024F0ECFD22F099F844
:1030800000F068FA02F07EFB01F0BCF90BF0FCF8EE
:10309000324C3348230088331D600BF01FFF0BF0C8
:1030A000FBFE0BF003F92F4F3B78012B0ED10023D1
:1030B00007211A002C4800F0ABFB031E1DD00100B5
:1030C000F820400000F0F8FCFFF700FF3B78002BF1
:1030D0002AD112F0F9F80028F8D0244820F056F947
:1030E0000BF0EAFE08220021214825F0E1FC230034
:1030F00098348C331D602560AAE7F822920211787B
:103100004D2909D15178502906D1F8205288194902
:1031100040001FF0D5FDD7E70122174917200AF01C
:10312000E7FB21F0C9FAD1E712F01EF9D3E7C04658
:103130003C2900205429002003230200DC29002020
:10314000582900205C2900206429002060290020E3
:10315000004000203C2900203C010020102A0020D3
:10316000852E0000EA000020440103004C0103000A
:10317000902A002004E0030088C1020010B5084C2A
:1031800006212000074A13F081FE2000064A074965
:1031900025F0F8FB00221E21054824F065FD10BD36
:1031A00064290020A4910200000000203D6E01006F
:1031B000DC29002010B5010083880120A02298405E
:1031C000054BD205D0500A7ACB8809315A4392B2C6
:1031D00023F0C6FE014810BD0C05000010B102002E
:1031E000F0B50C000500C18816000023220000681D
:1031F00085B0FFF735FD2F7A78430400002E18D0F4
:10320000042E19D101232C18A27A694652001A43C0
:103210000092627A38009A401A430192E27A9A4008
:103220001A430292227B9A40134303930DF0F2FB60
:103230000600300005B0F0BD30006A463900FFF7E7
:10324000FBFC00262B7AB34213D9009BB700F85839
:10325000FFF72CFCFF2802D907480AF011FC074BA6
:103260000F223B4113402A19D31801365872F6B287
:10327000E8E7034EDDE7C04690010300013200009D
:1032800010B10200F0B5080087B011001A001B4B06
:1032900003AC00930194032322F065FD03981FF013
:1032A000CEFA049F46B2059D1548002F03DDEB1EA4
:1032B000012B02D913480AF0E3FB280078430C30B5
:1032C00022F0AAFD104BBAB204006A430360868064
:1032D000C78005720021093025F0EAFB3300A022E7
:1032E0000321C133FF33D2059B00995001232000F5
:1032F000B3400649535007B0F0BDC0460C920200DF
:103300009F010300B80103002C9202000C0500008D
:1033100010B50400037AC28800215A43093025F011
:10332000C7FB2000FFF746FF004810BD10B10200A8
:1033300070B505000C200C0022F06EFD024B4560BC
:103340000360846070BDC0466892020010B523F02F
:103350002EFE014810BDC04610B1020010B5C307D3
:1033600008D483070ED10368094A934202D0094A60
:10337000934207D1FFF79AFB002801DD20F013F8F4
:10338000054810BDFFF7F8FB17F046FDF4E7C0460F
:1033900060B60200E4E3020010B1020001220B4B10
:1033A00010B51A600A4A51680029FCD0002151600A
:1033B000A1220131D2009A5859600323D017184036
:1033C0008018801021F0E2FF10BDC04600C0004010
:1033D000FCC0004010B5002804D1044812F0C4FC21
:1033E000034810BD0868FFF761FBF7E7E70300003B
:1033F00010B10200F0B5334B8BB007AC01940093D1
:1034000003230EF0B5FF0221089805AAFFF714FC6C
:1034100006AA02210998FFF70FFC0798FFF7ACFBFB
:10342000059B061C1868FFF7A7FB059B051C586841
:10343000FFF7A2FB069B071C1868FFF79DFB069B86
:10344000041C5868FFF798FB291C0390301C17F0E8
:103450001FFB291C061C381C17F01AFB011C301C12
:1034600017F028F8211C051C039817F011FB011C0C
:10347000281C17F0E7F9211C16F07EFE032206999E
:103480000B681A40022A03D10F4A1340062B10D1B1
:1034900003224B681A40022A03D10B4A1340062B21
:1034A00007D119F077FE17F0B7FC21F06FFF0BB0D2
:1034B000F0BD0323020002209A43044B1043C018BE
:1034C000F5E7C046E0930200070080FF000080801F
:1034D00080235B051869034B1B7843438020C0029F
:1034E000C01A70472F2F002080235B051869034BFB
:1034F0001B7843438020C002C01A7047302F002041
:1035000070B5084DC4012B680021181922F098FBF2
:103510002868054B00197F3000781B788342F0D271
:1035200070BDC046F42900202E2F002010B5C379AD
:103530000400002B08D0064A037981791068DB016A
:10354000C018013022F07CFB0023237210BDC0465E
:10355000F429002070B5F8248025A40223786D0595
:103560004D2B4CD12B698020E41A2B69C002E41A40
:103570002969001B16F00EFB2B4B2C4918702B6988
:10358000E21852185D421540294B2A4A9B1A2A4AD2
:103590009B188022520511699D4234D38020C002BD
:1035A000401B16F0F7FA254B01211870641B244BC1
:1035B000E4111C70A1240025224AE400116018784F
:1035C00021494D604B68002BFCD01359DBB283427C
:1035D000F7D21E4901330B7001235360FFF778FFC8
:1035E000037805001A4CFD2B0FD180235B05186969
:1035F000184BC009C018C0012818206070BD802475
:103600002B69E402AFE76D18C5E7FFF76DFF03789C
:10361000803DFD2B01D12560F0E7FFF765FFFD211F
:1036200022F00EFBF7E7C046302F0020FF87FFFF98
:103630001401002000000020C08503002F2F00206F
:103640002E2F002000D00040FCD00040312F002061
:10365000F4290020FFFFFF01F7B5254B254E1A780E
:10366000254B14001B7831680133E001405CFF28D2
:1036700028D00134E4B29C4200D101249442F4D118
:10368000802300255B051B69DB0901933368E70193
:10369000DA19DB5D00925A4253410098ED1822F08E
:1036A000E5FA002810D0002305E00099DA018A5CD1
:1036B000002A09D10133019A9342F6D13068C0192A
:1036C00022F0CAFA2000FEBD0B4B01341B78E4B295
:1036D00001339C4200D10124054B1B78A342D5D174
:1036E000002D02D01EF06EFEB7E7FF24EAE7C046C9
:1036F000312F0020F42900202E2F002070B583796F
:1037000004005B18DBB200257E2B02D08371002001
:103710000CE08571002A19D0FFF79EFF0600FF28F4
:1037200005D12079FFF7ECFE1C20257270BD0C4DF1
:1037300060792B68C001181831007F3022F080FAC0
:10374000F0012E686179301822F07AFA044B627920
:103750001B68D2019B187F331B786371D7E7C04683
:10376000F429002010B50F4B1A684379DB01D318F8
:1037700019007F310978FF2908D10179C901521850
:103780005278FF2A0BD08179914208D082790121A9
:103790009B1800225C78FFF7B1FF200010BD0124C8
:1037A0006442FAE7F4290020F7B506000D00012471
:1037B0000E4B1B7801930E4B1F68019BA34202D254
:1037C000FF242000FEBDE301F918FB5CFE2B09D1AC
:1037D0008B78AB4206D12A003000033125F03EF948
:1037E0000028EED00134E4B2E7E7C0462E2F0020D7
:1037F000F429002010B5054A03791068DB01C018D0
:10380000817800220330FCF7B9FD10BDF4290020B7
:10381000F0B585B006000D0002920393782948D8D0
:10382000FFF7C2FF029A03000400002A3CD0FF28E1
:1038300001D0FFF765FEFFF70FFF0400FF2803D15B
:103840001D491E4820F059FF1D4FC0013B68FE2155
:103850000190181822F0F4F93B68019AE9B298181F
:10386000023022F0EDF93868019B2A00C0183100BF
:1038700003300EF0F5FC0C2022F0CEFA039A114B27
:10388000002A00D0104B03600D4B04711B6844717B
:10389000E4011C19A37802338371029BC3710123D5
:1038A0000372039B437202E00298FF2BE3D105B041
:1038B000F0BD0020FBE7C046C40103007CA4020069
:1038C000F4290020ACB9020000B9020007B501A933
:1038D000FDF7AAF90199FFF767FFFF2803D1044913
:1038E000044820F00AFFFFF70BFE03480EBDC04658
:1038F000DA0103007CA4020010B10200F7B50192C6
:10390000027A05000091002A02D120480AF0B8F896
:10391000C479002C07D11E4902790968D201525C92
:103920007E27002A05D1092201241A606442200062
:10393000FEBD1749AB7908686979FA1AC9014118BF
:103940000E007F363678FF2E09D12E79F6018019C8
:103950004078FF2818D0C01A824200D9020001988E
:10396000061B964200D91600002EE0D0009A0133C3
:103970001019C918320025F07FF800223100280004
:10398000FFF7BCFEA419D4E70022E8E7E901030031
:10399000F4290020F7B50193037A04001500009183
:1039A000002B02D11A480AF06BF8C379002B07D01C
:1039B000184A03791268DB019B5C2F00002B0AD1A7
:1039C0000923019A136001256D422800FEBD009B6A
:1039D000BF1B9B190093002FF7D07E23A2799E1A5C
:1039E000BE4200D93E0060790A4B01321B68C0011B
:1039F00080180099320018180EF032FC01223100B4
:103A00002000FFF77BFE0028E1D0019B1860DAE779
:103A1000E9010300F4290020002170B5080022F01C
:103A200031FE012405000C4B1B78A34201D2280073
:103A300070BD0A4AE3011268D018D35CFE2B08D18E
:103A4000817800220330FCF799FC0100280010F077
:103A5000C9F80134E4B2E6E72E2F0020F429002053
:103A600073B501A9FDF7E0F80199FFF79DFEFF2866
:103A700003D10E490E4820F040FE00257E260D4B56
:103A80001C68C301E31859789B780233DBB2C2018A
:103A9000A2187F321078FF2804D1C81A401921F0EB
:103AA00075FC76BDF31AED180023F0E7DA01030088
:103AB0007CA40200F42900201FB5034A034B1FF029
:103AC000C2F805B000BDC046653700002D350000C6
:103AD000044B054A05481A60054A5A6000221A81BB
:103AE0007047C046FC2900202003070010B10200E7
:103AF00074696275F7B51600324A0B008832156892
:103B0000002D02D1304809F0BBFF02222F49304C72
:103B1000CA67A321C90064582E4FE4B2063439683D
:103B20002C19A14205D12C4B1A602C4B0193019802
:103B3000FEBD2578002832D1601C002B04D129005D
:103B4000FCF734FC01900BE05A68AA4200D92A0025
:103B50000100186824F099FF0123680003430193D2
:103B6000002E0ED0621953785B423360D3781179FE
:103B70001B0209040B43917852790B43120613433D
:103B800073603E68A91D6118721A200024F07DFF41
:103B90000223114A761B063E3E601360C7E7022DE2
:103BA00006D80023037043708370C3700E33D6E7CA
:103BB0002100042224F060FF0022E91E201DFCF7F2
:103BC000DDFBBFE7102A00200602030004E100E04D
:103BD00000100040082A002000E100E010B10200BF
:103BE0007FB5002101AA0800FFF784FF0A4B984225
:103BF0000FD00121019B03905A00029B0A438B4086
:103C00000492064A032013400B4303A905930CF0CA
:103C100001FF07B000BDC04610B10200FEFFFF7FEC
:103C2000002213B501AC11002000FFF763FF094B20
:103C300098420ED02378022B08D96378012B05D146
:103C4000A378002B02D1E378012B02D0024809F0BF
:103C500017FF16BD10B102001B02030002220B4B1E
:103C600010B5DA6700220121094B5A61094A116136
:103C70005A69002AFCD0084C88342068002803D0F8
:103C800022F0F9F80023236010BDC04604E100E0F3
:103C9000FC10004000100040102A002010B5FFF773
:103CA000DDFF014810BDC04610B10200F8B5FFF7B6
:103CB000D5FF364C267865780636013575432800E1
:103CC00022F0AAF8324A861916600022314B4519B3
:103CD00088331860304B01211D60304B5A608022C0
:103CE000D20511605A68002AFCD003212C4B615682
:103CF0002C4A00259950A178043A9950617A0832EB
:103D000099506168284A08269950217A274A284FF5
:103D100099500121274A9D5004329950264A9E50BD
:103D20008122247892042243A324E4001A5102241D
:103D3000224A9C50224A9F50224F043A9F501827F3
:103D4000214A9F50214AC0279850C12292009E507C
:103D50001F4ABF00D0591F4E0640C020000230430A
:103D6000D051C020400014501460102280301C58E4
:103D700022431A50184A5560596051680029FCD0F6
:103D80000021116101229A60F8BDC046FC29002083
:103D9000082A0020102A0020F8290020FC000040FA
:103DA000001000400C0500001C0500002405000068
:103DB000FFFF00002C050000140500003405000082
:103DC0003C0500002110010054050000040500001E
:103DD00000E100E0FF00FFFFFC10004010B5FFF71E
:103DE00065FF014810BDC04610B1020010B5FFF7D5
:103DF0006FFEFFF75BFF014810BDC04610B1020027
:103E0000F0B58DB016000490002802D06A4809F081
:103E1000FDFF6A4B09AA190031C931C203251A787E
:103E200006925A7805929A7803925A685D570192E1
:103E30001F7A5B7A02937368049A93424DD9D30038
:103E40000793079AB3689B181A68002A1BD0042AA4
:103E500019D05868FEF756FE079AB36804009858C0
:103E6000FCF7AEFA0200B538FF3806282FD815F057
:103E70007DFE040E151B21272900631EFA2B00D995
:103E800098E0E3B20693049B01330493D3E7631EE7
:103E9000FD2B00D98EE0E3B20593F4E7532C00D953
:103EA00088E0E3B20393EEE7072C00D982E0444BAD
:103EB0001D57E8E7022C00D97CE0E3B20293E2E769
:103EC0000194E0E7FF2C00D974E0E7B2DBE73D495D
:103ED0003D4804F025FB08F065FF3C4B09AC8833F6
:103EE0001B68002B11D1069BE5702370059B277280
:103EF0006370039BA370019B6360029B63722F4BF3
:103F000007CC07C332480DB0F0BD069B2B4E237083
:103F1000059B6370228833889A420ED0FFF79EFE7D
:103F2000039BE570A370019B27726360029B637221
:103F30000ECC0EC6FFF7BAFEE4E70222254BDA6785
:103F4000254B264A9C46002361464B610133136191
:103F500063465B69002BFBD0039809AB987001980E
:103F6000DD700A9002981F725872144852CB52C0EA
:103F70001B4B0398D550043BD05002980833D050C7
:103F80000198184B6146D050174BD75000234B6017
:103F90000133536063465B68002BFBD0002361460E
:103FA0000B610133C02193600222104B49005A502B
:103FB0001A60A7E70E498BE73B020300FC290020AB
:103FC00095020300560203005CA60200102A00209E
:103FD00010B1020004E100E0FC10004000100040BD
:103FE0000C0500001C0500002405000000E100E0B5
:103FF0006C020300214BF7B55A68214D002A03D00B
:1040000000225A600132AA601A69002A34D00022C4
:104010001A61A323DB00E8581A4BC2B2883319682F
:104020000C78A24201D2140008708023DB00EB5808
:10403000012B1FD1144E154A3768A31D1268019336
:10404000FB189A4216D3621C380024F015FDA923F0
:10405000DB00EB58621CBB5415F0DCFC3368020A31
:104060001C19E270020C2271019AA0709B18000EBC
:10407000607133600123AB60F7BDC046FC100040A7
:1040800000100040102A0020082A0020F8290020F3
:10409000F7B5314F00933B00883301921A680D0049
:1040A000002A02D12D4809F0EBFC02212C4B2D4CAB
:1040B000D96700232C4E6361013333616369002BA0
:1040C000FCD0A323DB00F3580099DBB269189942B6
:1040D00003D9AB423DD35B1B0093009B8837EB18A1
:1040E00013703B680100013318002A0024F0C4FC5F
:1040F000009B002B06D0386801351A000199401941
:1041000024F0BAFC00236360013333606368002B42
:10411000FCD00123B360002323612369002BFCD072
:1041200000236361013333616369002BFCD00023FA
:104130006360013373606368002BFCD00023C021EF
:10414000022223610133B360084B49005A501A60C0
:10415000F7BD1D000023BFE7102A00200602030060
:1041600004E100E0FC1000400010004000E100E02D
:1041700007B501A9FCF758FD020003210248019B85
:10418000FFF786FF01480EBD9102030010B1020047
:104190001FB5012201A9FEF743FE002301981A0072
:1041A0000299FFF775FF014805B000BD10B102008C
:1041B000F0B5802787B02B4D02907F422C78002CE1
:1041C0001CD063B2002B12DA6E787C40E4B2002E71
:1041D00014D0013CE4B2FF2C02D101350135EDE7EA
:1041E00004ABD81D0121067005F0DCFDF1E704AB3E
:1041F000D81D0121047005F0D5FDEFE705270298D1
:104200001FF0D1F80124A74227DD0025164E220019
:10421000290030000BF0B0FE6B4601901B79002B9B
:1042200015D0631E1A002900300003930BF0A4FE82
:10423000031E0CD12200290030000BF069FEFF2282
:10424000019B290013403000621E0BF061FE013516
:10425000052DDBD10134E4B2D5E7013F002FCED1EB
:1042600007B0F0BD9D0203001C00002010B5C8205F
:10427000FFF79EFF004810BD10B1020010B504000A
:10428000431C02D0024804F0ABF9024B1C6010BD85
:10429000382A00200C2A0020014B024A9A647047F9
:1042A000102A0020382A0020054B10B5186823F08A
:1042B0008EF8044B002800D1034B180010BDC046F7
:1042C0005C290020DCE30200D4E3020010B5034BBC
:1042D000186823F084F8024810BDC0465C2900200D
:1042E00010B1020010B5034B186823F0E6F821F076
:1042F0004DF810BD5C29002010B5034B186823F061
:10430000E3F821F043F810BD5C29002010B5034B01
:10431000186823F0E0F821F039F810BD5C2900207E
:1043200010B5034B186823F08BF821F02FF810BD5F
:104330005C29002030B593B00AF0BEFD184C200077
:1043400023F083FC174D286812F04AFA200023F06E
:1043500081FC0AF0A1FD20F02CFF1EF07CF9040086
:10436000296803A823F029F80F4B20000A93039B28
:104370000B93049B0C93059B0D93069B0E93079B3D
:104380000F93089B1093099B0193119321F064FCF8
:10439000200020220AA90DF063FF044813B030BDAD
:1043A000642900205C29002055BA11C010B1020018
:1043B000F7B5114C0500206823F009F8002802D158
:1043C0002800FFF7B7FF0D4E3378002B0ED10C4DB0
:1043D0002B78DAB20192002B08D1012720682F70C8
:1043E00003685B689847019B2B703770206812F058
:1043F000D3FA20F0CBFFFEBD5C290020322F002035
:10440000332F0020F0B58DB01EF025F90E4B026859
:104410009A4217D10469826808944469C368416864
:1044200009948469C0690A9484466C460591069291
:10443000079308A8E0C8E0C460462060034800680D
:1044400022F0A5FF0DB0F0BD55BA11C05C290020C7
:10445000F0B5040085B00D00100003A9A26A1E008B
:1044600021F036FB002809D12A000B490B4804F043
:1044700057F8636A1860002005B0F0BD0398FEF796
:1044800041FB0300B343F7D003002A000449009620
:10449000024804F045F8ECE73B0303006CA502007A
:1044A0005303030070B5137804000A3B1000DAB21E
:1044B0000F2A09D90A001148114904F031F80025E2
:1044C000636A1860280070BD00251A0243781A43F9
:1044D000E36A9D420AD1238C0025042BF2D10949BD
:1044E000064804F01DF8636A1860EBE7206BA9002A
:1044F00009589142E6D00135EBE7C0466CA50200B1
:104500007F0303009403030010B5040002481EF06B
:10451000D6FC206010BDC0466CA50200F7B50D00AA
:1045200007001100280021F0EDFA002604001449CC
:10453000042807D8A64209D028780A38C3B20F2B1E
:1045400006D91049786AFFF7DFFF00242000FEBD7E
:104550006B780002184321F07FF80235019024F0B7
:10456000FBFA0228EDD1019B1B78722BE9D1019B4C
:104570005A78330030339A42E3D10136DAE7C04645
:10458000AB030300DE030300F8B51E0013780D0033
:104590000A3BD9B204001B480F2904D818025378EB
:1045A000184321F059F80378174A1F000023517867
:1045B000B9421DD141788C4691788C4518D18178CB
:1045C0008C46D178614513D100290ED10E4A9B004B
:1045D000D05CB04208D933002A000C490C4803F0E3
:1045E0009FFF636A18600020F8BDC1780029EDD0F4
:1045F00001330432152BDAD12A000649044803F0AE
:104600008FFFEEE755810300360503001004030019
:104610006CA5020029040300F0B5137805000E0014
:10462000100085B0462B46D101A921F081FA019BEB
:10463000834240D003781A000A3A0F2A0AD80200AF
:104640000F2331002800FFF79FFF01248440200042
:1046500005B0F0BDB32B2ED121F065FA040021F096
:104660005DFA02900378B62B25D12200A73B3100DA
:104670002800FFF789FF012403A98440029821F054
:1046800057FA039B0290984203D09D2102A821F083
:104690005EFA0127029A039B9A42D8D00F23310079
:1046A0002800FFF771FF3B00834002981C4321F074
:1046B00035FA0290EEE732000349044803F030FF78
:1046C0006B6A00241860C2E7410403006CA5020075
:1046D000F0B50F0087B0040004A938001E00019255
:1046E00020F0BFFF019B0500002B0FD1A5239B00ED
:1046F0009F4205D1BF21090220001DF040FDBCE012
:10470000BC4B9F4200D082E0BB49F5E7019B012BE7
:1047100000D094E00A33FF339F4210D10100326889
:104720002000FFF7BFFE010020001DF071FD0028F2
:1047300000D0A2E0B149606AFFF7E6FE9DE0B04B11
:104740009F4209D1010032682000FFF7ABFE010053
:1047500020001DF0B4FDEAE7AA4B9F420AD10100F8
:104760000F2320003268FFF70FFF8E21C000C90120
:104770000143C1E70378622B31D1049B032B07D09F
:10478000052B2CD1C3785F2B29D103796E2B26D131
:104790000127002269789C4B7F425878884205D1D6
:1047A000A87884469878844500D11F780132033375
:1047B0000E2AF2D17B1C2AD0290032682000FFF794
:1047C00071FE049902000023052903D12B79773B60
:1047D00059424B41390020001DF037FDA7E78923DE
:1047E0009B009F4201D1894986E7894B9F4201D1B5
:1047F000884981E7884B9F4212D129002000326806
:10480000FFF70AFFFF231B02B421184215D0019BBA
:104810002A008249824803F083FE636A18602CE014
:10482000804B9F42F3D1290020003268FFF7F4FE4D
:10483000FF231B021842EAD1BC21090298E7019B21
:10484000022B00D025E17368774A1B780A3B0F2BB7
:104850004BD8974213D101000F2332682000FFF795
:1048600093FE2900070072680F232000FFF78CFEDB
:104870003900020020001DF0B5FC07B0F0BD6B4B05
:104880009F4215D18027FF012900326807232000AD
:10489000FFF77AFE29007268019007232000FFF7D6
:1048A00073FE39000300019A20001DF094FCE4E738
:1048B00000275F4B0133029303222800029924F062
:1048C00052F900280AD1EB78002B07D1584BBF00D2
:1048D000DF5D80233F01DB011F43D5E7029B0137EA
:1048E000043302930F2FE7D191E7974219D1802724
:1048F0000723290032682000FFF746FEFF23290026
:10490000019072682000FFF7A3FD019BBF010743E0
:1049100019023943F0E6A027EAE7C027E8E7E027D5
:10492000E6E7444B9F42F6D01E3B9F42F5D0424BF8
:104930009F42F4D0414B9F4251D0414B9F4250D0B7
:10494000404B9F424FD0404B9F424ED03F4B9F42E7
:104950004DD03F4B9F4200D059E705233D4A9B0075
:104960009B5A29003268029320000723FFF70CFEB0
:10497000766803903378452B6ED1300021F013F91F
:10498000002869D1300021F0CEF80378A62B63D13E
:1049900005A921F0CDF80599060021F0B3F8022809
:1049A0005AD1300021F0BAF807233200070029005D
:1049B0002000FFF7E9FD029B0600DB0454D51F230E
:1049C0003A0029002000FFF743FDF100039B029EFF
:1049D00080011E433143F826F6003040C8E600232C
:1049E000BCE70123BAE7019BB8E70323B6E704233A
:1049F000B4E7C046ED02000030BF0000BC04030075
:104A00000D02000011020000D004030072B6000085
:104A10002502000062B60000A30200008704030024
:104A20006CA502009E0200008D020000030200003F
:104A3000FA0403001E020000CB0200007202000014
:104A40007302000075020000C6020000C7020000E9
:104A5000C90200003CF402002A003F493F4803F02D
:104A60005FFD636A1860D2E66B4608229B5E002BEE
:104A700007DA3E233A0029002000FFF7E9FC40084E
:104A8000A3E77C233A0029002000FFF7E1FC80081F
:104A90009BE7019B032B00D0B9E69F239B009F421D
:104AA00021D100270723290032682000FFF76CFD81
:104AB00007232900726802902000FFF765FD1F237D
:104AC00029000190B2682000FFF7C2FC029B81011F
:104AD0003B431943019BD8004AE680273F01E1E7A9
:104AE00080277F01DEE71E4B9F42F6D01D4B9F4281
:104AF000F6D0093B9F4229D1C027072329003268FD
:104B00002000FFF741FD0723726801902900200073
:104B1000FFF73AFDB2687F01137802900A3B0F2B32
:104B20000BD8072329002000FFF72EFD029BD90098
:104B3000019B19430F438101EBE68023DB001F43F8
:104B4000290007232000FFF783FCEFE7064B9F4275
:104B500000D05CE6D027D0E75C0403006CA502001F
:104B60007D02000009020000CB02000003000020CB
:104B70007F2B03D8024AD05C8007C00F7047C04625
:104B80008A050300030000207F2B03D8024AD05C73
:104B90000007C00F7047C0468A05030003000020CD
:104BA0007F2B03D8024AD05C4007C00F7047C04635
:104BB0008A050300030000207F2B03D8024AD05C43
:104BC0004006C00F7047C0468A05030000237F28B7
:104BD00008D80C22044B195C0123114202D15F3822
:104BE00043424341180070478A0503000300002038
:104BF0007F2B03D8024AD05CC006C00F7047C04666
:104C00008A050300030000207F2B03D8024AD05CF2
:104C10008006C00F7047C0468A050300F0B58FB00C
:104C200007924268089394460368040003939B68C4
:104C300004300093634403600D001DF0D7FD06901F
:104C400060681DF0E9FD431C63600378A14A01938D
:104C5000831C6360437800210093C31C63608378E6
:104C60000493031D6360C378200002932300103374
:104C7000A360069B14309A1893000593C318E36051
:104C8000059B0C331A00099323F012FF009A069B30
:104C90009B1A049A0A939E1A371D009ABF0001239B
:104CA000E719AA4200D36EE0019A1A4207D12B00FD
:104CB000009A8949894803F033FC08F073F8009B97
:104CC00003369900089BB6005918009BA619E81AEC
:104CD0000BF0A0FE009B043F7060089A09999B00AE
:104CE00061189B1804399A4200D079E0079B002B89
:104CF00003D1019B1B0700D4D1E00223019A0026B7
:104D00001A400B92019A1A4204D0079820F0DDFB5A
:104D1000060038600027039BAD00DB680993089B01
:104D20005D19079B9F425ED10A9D029B0535039941
:104D3000AD00033362199B00CB181100029E002EB8
:104D400000D07DE0059B029920338900E3185218BA
:104D5000934200D97DE0009B143D9F00099B65199B
:104D6000DF19049B9E4200D27DE065680DA80D9579
:104D70001DF03CFD28180378451CFF2B00D09DE05A
:104D800065600FB0F0BD019A1A4205D00336544B4E
:104D9000B600A619043F7360079B002B16D1019B38
:104DA0001B0713D4009B029A9A1AAA4216D8029B98
:104DB000009A5B199B1A039A9B00D3182A00059945
:104DC0001C31611800980433824201D32B0084E720
:104DD0009000DE6840420E500132F3E72B0068E796
:104DE00001CA48617EE7009B049800221B189C467C
:104DF0002968944505D80B9B002B1CD1CA0839495A
:104E00000EE0099B90001858884212D1069B013B86
:104E10009B1A9B00E3185A69002A05D0CA08324938
:104E20002E4803F07DFB48E76A685A610137083570
:104E300077E70132DDE730006A6820F06FFBF5E7C5
:104E40000868002801D118680860013E0431043B5D
:104E500075E70432111F0968002900D078E79A1A13
:104E600022499210DCE72A69002A10D10820019B10
:104E7000396803420FD0029B039804339B001858F3
:104E8000043003F06FFE002805D043682B61013623
:104E9000043D043765E73A681549D208C0E7049B2A
:104EA000002B02D0134808F0B1FF019B9B0700D4F0
:104EB0005BE7049820F009FB386056E7069A561E17
:104EC000F61AB600A61970690BF0F0F870612800A8
:104ED00051E7C046FDFFFF3F0A060300E4A50200BC
:104EE00088C1020072060300430603009306030014
:104EF000C5060300F50603000139C9B2054B401889
:104F00008030054A197003781370044AD25C044B50
:104F10001A707047352F0020362F0020DB18030051
:104F2000342F00200131C9B2054B40188030054AAA
:104F3000197003781370044AD25C044B1A707047DE
:104F4000352F0020362F0020DB180300342F0020DF
:104F5000074A0B00904206D906490918C918064BA2
:104F6000C9180878704705490918C918044BF7E7AC
:104F7000A49200001C1703005B6DFFFF30070300C5
:104F80000083FFFF030020228033F0B51A707F25D5
:104F900000234F265F27040089B08130E15C0A00BE
:104FA0002A406F2A23D90A003A40C25401337F2B8A
:104FB000F4D1C04A137023001B22FF331A70FF2361
:104FC0000093BD4D5A1CD2B203922A70A2188032AF
:104FD0001278BA490A705B2A0ED1009B4032013325
:104FE000DBB22B700A70E254012009B0F0BD5F2AD9
:104FF000DBD90A003240D8E72E2A13D10233DBB2C4
:105000002B70E31880331B78AA480370AC48C35C4C
:10501000012003400B7005D1009B1B18DBB20093ED
:10502000E254DCE102200226A24B1A70A44B9B5CE6
:105030001840334200D097E0002B0AD01E007F2595
:105040005BB2AE430E70002B18DB9E4B9E4A1A607B
:10505000CBE720222B780A70E31880331A70009B6C
:105060000133DBB200932B70782B05D99B23009A78
:10507000A354039B0B70B7E7009BD1E7934B413AD6
:10508000D2B293499B5C8A5C1B021A430192019B3A
:10509000002101339BB218000193FFF759FF03066B
:1050A000F5D5012300271D00824E33702900019899
:1050B000FFF74EFF2B0005950135EDB2282859D199
:1050C000002F00D0337033780493049E0198731C32
:1050D000DBB219000493FFF73BFF2928F5D17F27A6
:1050E000049B0293029B019807930133DBB21900E2
:1050F0000293FFF72DFF38403D28F3D16E4B039A02
:105100001A706C4B06921D70069B2900E3188033C1
:1051100001981F78FFF71CFFB84228D16B1CDBB247
:10512000B54229D1654B039D1870059B0198013B41
:10513000DBB20593059A5F4B11001A70FFF708FF69
:10514000030600D5F9E05E4B5B4F1B5C38707F2B8C
:1051500018D9013DEDB2631980331B78574A3D7071
:1051600013709842E1D092E75A4B01938FE7534B6B
:1051700018708CE7012799E7069A1D000132D2B218
:105180000692C1E74D4E307020280FD12900200033
:10519000FFF7B2FE33787F2219005BB29143317082
:1051A000002B00DA73E7444B1D78BEE7232809D1B2
:1051B00029002000FFF7A0FE40223378134033700F
:1051C000F1D164E72E2806D129002000FFF794FED4
:1051D00008223378F2E726281CD129002000FFF7A7
:1051E0008BFE102233781342DDD13B78E2188032F7
:1051F00012783270482A00D049E7013BDBB23B709D
:10520000E31880331B78383A33709343432B00D034
:105210003DE7C8E7402806D129002000FFF76CFED3
:1052200004223378CAE75E2806D129002000FFF760
:1052300063FE20223378C1E72B280ED1013DEDB269
:105240003D70651980352B783370452BABD010221B
:105250009343492B00D01AE7A5E73A2804D0194B0D
:105260001D4A00201A60C0E629002000FFF744FE16
:105270002021124A13780B40137000D155E70E4BD2
:105280001D78F1E7492A00D001E7AA1CD2B2A21882
:10529000803212781A704E2A00D0F8E60335EDB24B
:1052A0000D70651980352A781A70472A00D112E1ED
:1052B000EDE6C046362F0020352F0020342F002089
:1052C000DB180300040000201C0703006119030021
:1052D00047190300A59200002607030060460870E6
:1052E000100052381A70012800D8F4E0442A00D186
:1052F000F1E04C2A16D0462A00D0C8E6EA1CD2B209
:10530000A218803212781A70552A00D0BFE60435F0
:10531000EDB20D70651980352A781A704C2A00D1CB
:10532000D9E0B4E60335EDB20D70651980352A7801
:105330001A70592A00D1CEE0A9E6069D28E0059909
:105340000198FFF705FE6E4B6E4F1B5C38707F2B8C
:1053500011D86D4E3070202843D129002000FFF76E
:10536000E1FD33787F211A005BB28A433270002B53
:1053700000DBB0E08BE60135EDB2631980331B78BA
:10538000614A3D701370984200D080E6059B0493FB
:10539000049B5E4E0133DBB205933370079A049B86
:1053A0009342CCD100257F27029B3370029901984C
:1053B000FFF7CEFD03003B403D2B04D0009A0132A5
:1053C000D2B20092A354029B0133DBB2020600D496
:1053D00092E0002D01D0029B3370069B0393039B48
:1053E000EFE5232809D129002000FFF79BFD40228B
:1053F0003378134033706ED149E62E2806D1290048
:105400002000FFF78FFD08223378F2E726281CD111
:1054100029002000FFF786FD1022337813403370F7
:1054200059D13B78E118803109783170482900D092
:105430002DE60133DBB23B70E31880331B78337009
:105440009343432B00D022E645E0402806D12900B3
:105450002000FFF767FD04223378CAE75E2806D1F3
:1054600029002000FFF75EFD20223378C1E72B28BA
:105470000ED10135EDB23D70651980352B78337052
:10548000452B28D010229343492B00D0FFE522E082
:105490003A2823D0252800D0E1E61A496B1CDBB25C
:1054A0000B70E31880331A78174B1A70452A00D016
:1054B000E8E6A81CC2B29446A21880321278134EB5
:1054C0007F2032700E4EB65C370076B287431F7075
:1054D000002E00DA02E70B4B1D7857E72900200069
:1054E000FFF720FD2021084A13780B40137000D1EC
:1054F0004CE7044B1D78F1E70125029356E7C046BF
:10550000DB180300352F0020342F0020362F002019
:1055100070B504000800FDF7C9FA0500431002D079
:105520000F4808F0ADFA20000E4903F057FC0028A0
:1055300007D0A02203216379D205C133FF339B003A
:105540009950012362799340A022D205002D04D006
:10555000A121C9000448535070BD0449FAE7C04670
:105560007B1903004CAB020010B102000C050000D7
:1055700070B505000800FDF799FA0B2303410400FC
:10558000DB0702D4094808F07BFA2800084903F039
:1055900025FCFF20A0226B798000C133A400FF33DB
:1055A00004409B00D20503489C5070BD9019030035
:1055B00044AB020010B1020010B50C49040003F026
:1055C0000DFCA022D205002805D004216379C13347
:1055D000FF339B00D150A223DB00D0586379D84021
:1055E000012318401FF0D2FE10BDC04644AB02009C
:1055F00010B5040003F0BEFB0A4B984205D00A4BDD
:10560000984202D0200003F0C3FBA0226379D205A8
:10561000C133FF339B0098580007800F1FF0B6FE80
:1056200010BDC04644AB02005CAB0200032370B562
:105630000B4005000800022B15D1194B0B40062B1F
:1056400011D0FDF799FA17F039FA0022154B15F031
:1056500093FC17F0CDF980230400DB00984205D3BA
:10566000114808F00DFAFDF721FAF4E728000F4978
:1056700003F0B4FB002807D0A02203216B79D205E8
:10568000C133FF339B0099502100687908F03CFE3C
:10569000002C03D12800064903F0A0FB054870BD8B
:1056A000070080FF0000E03F9D1903008CAB020063
:1056B0003CAB020010B1020013B50A49040003F02C
:1056C0008DFB05216846615613F006FB684613F012
:1056D00029FBA0230021044ADB00D1501FF056FE15
:1056E00016BDC0463CAB02000070004010B508007B
:1056F000FDF7DCF9FA239B00584308F0E1FD002890
:1057000002D0024808F0BCF9014810BDBE190300E0
:1057100010B1020010B50800FDF7C8F908F0D0FD7F
:10572000002802D0024808F0ABF9024810BDC0467C
:10573000BE19030010B1020010B5040003F01AFBFB
:105740000C4988420DD00C4B98420AD0200003F03F
:1057500045FBA02200216379D205C133FF339B00B2
:105760009950200009F0ACFD044B002800D0044BF8
:10577000180010BD74AB02005CAB0200DCE3020059
:10578000D4E30200A0230C220249DB055A50243145
:105790005A5070474407000010B50400FDF7A2F806
:1057A000064B984208D0064B984205D0054B9842CC
:1057B00002D0054808F02AFB200010BD9C99020089
:1057C0005498020090980200CD190300F8B5214EBC
:1057D0003568696801292DD9AB684C1E1A5D0A2A03
:1057E00028D15A1E002C01DC220008E0105D0A2896
:1057F000FAD0013CF6E7985C202802D101329142B0
:10580000F9D8002C0BDD501C814208D1601E002805
:1058100005D001381F5C0A2F0CD0202FF7D05B1861
:10582000023B1B78141B3A3B5A425341A408E4182C
:10583000013C00D2F8BD084F04223900280021F0B5
:1058400062FA0421380004F09FFA336904333361AB
:10585000EEE7C046642B0020797F030010B52022BC
:105860000021024823F024F910BDC046702A002010
:1058700002000800002110B5074B1A6052689960B9
:10588000197501395A60D9601A6198611DF07EFD61
:10589000FFF79CFF10BDC046642B0020F8B50378CD
:1058A0000400002B1BD00E4F386E002804D02100BE
:1058B00023F048F9002812D0200023F04DF9461CAF
:1058C000300020F0B6FA051E09D03200210023F086
:1058D000D3F81C220349044823F0D7F83D66F8BDED
:1058E000102A0020702A0020742A0020F0B5B84C3D
:1058F00002002068A568436885B00193002D00D0A0
:10590000FDE0531E042B11D8636801998B4200D12E
:1059100095E0012A00D12DE1022A07D123696268AE
:10592000934200D95CE10122524288E0032A00D16F
:1059300085E0042A00D133E1052A00D107E1062AD7
:105940000ED12369019A9342AD416D42002DEADDEB
:105950002368290098682369C01804F015FA1FE02D
:105960000B2A21D1019B2269991A21F0DCFA2368C4
:10597000019A5B68934204D213002269981A04F0DA
:1059800039FA2268236951689068C91AC01804F06E
:10599000FBF9236858682369C01A401B04F018FA01
:1059A00023695D192561BEE70E2A13D1E368002B38
:1059B000B9DB013B6268E360019B991A21F0B3FAFD
:1059C000E368002B18DB834A16339B00D3189968D1
:1059D00020680FE0102A16D1E368062BA3DC7D4A6D
:1059E0005D1C17339B00D318996800299BD063680E
:1059F000E560436021F05CFA63682269D61A226888
:105A00005568ED1A0AE0152A0CD1236962686168AD
:105A10009A1A21F08FFA236962689E1A0127002ED4
:105A20002FDCA4E70D2A0DD16B481DF0AFFC2068D8
:105A300021F0D1F96368C018FFF730FF0022100091
:105A400005B0F0BD01231B2A62D0082A01D07F2AAD
:105A500020D121696368994200D864E701228668F1
:105A6000D21AF75C202F13D1D71801339942F8D8F6
:105A70000126032F00DD03363200891B21F05AFA7C
:105A80000127300004F0A4F923699E1B26617BE006
:105A90000126F1E7092A28D1636822698068D11AB2
:105AA000C0184E4A03AB01F083FC071E00D13AE751
:105AB0000026431C0BD1A0691DF068FC63682269B5
:105AC000D11A22689068C01804F05EF94FE7236984
:105AD0002068F118039B01365A1C03921A7821F0B2
