:100000000C9462000C948A000C948A000C948A0070
:100010000C948A000C948A000C948A000C948A0038
:100020000C948A000C948A000C948A000C948A0028
:100030000C948A000C948A000C948A000C948A0018
:100040000C9475020C948A000C948A000C948A001B
:100050000C948A000C948A000C948A000C948A00F8
:100060000C94BF020C948A000000000024002700BA
:100070002A0000000000250028002B0000000000DE
:1000800023002600290004040404040404040202DA
:100090000202020203030303030301020408102007
:1000A0004080010204081020010204081020000012
:1000B0000008000201000003040700000000000027
:1000C0000000ED0311241FBECFEFD8E0DEBFCDBF8F
:1000D00021E0A2E1B1E001C01D92A03AB207E1F730
:1000E00011E0A0E0B1E0EEE2F9E002C005900D926F
:1000F000A231B107D9F710E0C2E6D0E004C02197E1
:10010000FE010E948A04C136D107C9F70E94190472
:100110000C9495040C940000CF92DF92EF92FF9222
:100120000F931F93CF93DF936C017A018B01C0E093
:10013000D0E0CE15DF0589F0D8016D918D01D60193
:10014000ED91FC910190F081E02DC6010995892B7C
:1001500011F47E0102C02196ECCFC701DF91CF914F
:100160001F910F91FF90EF90DF90CF900895833013
:1001700081F028F4813099F08230A1F00895873021
:10018000A9F08830B9F08430D1F4809180008F7D5F
:1001900003C0809180008F7780938000089584B59C
:1001A0008F7702C084B58F7D84BD08958091B000A3
:1001B0008F7703C08091B0008F7D8093B000089549
:1001C0001F93CF93DF93282F30E0F901E255FF4FC3
:1001D0008491F901E656FF4FD491F901EA57FF4F98
:1001E000C491CC23C9F0162F81110E94B700EC2FC7
:1001F000F0E0EE0FFF1FEE58FF4FA591B4918FB7BF
:10020000F894111105C09C91ED2FE095E92302C0EF
:10021000EC91ED2BEC938FBFDF91CF911F9108955F
:10022000CF93DF9390E0FC01E656FF4F2491FC0151
:10023000EA57FF4F8491882361F190E0880F991F5E
:10024000FC01E859FF4FC591D491FC01EE58FF4FD6
:10025000A591B491611109C09FB7F8948881209548
:1002600082238883EC912E230BC0623061F49FB708
:10027000F8943881822F809583238883EC912E2BEC
:100280002C939FBF06C08FB7F894E8812E2B28834C
:100290008FBFDF91CF910895EF92FF920F931F933D
:1002A000CF93DF93082FC8E0D0E010E89BE0E92E61
:1002B000F12C612F602380919F010E94E00061E09A
:1002C00080919E010E94E000F7013197F1F760E014
:1002D00080919E010E94E0001695219751F760E001
:1002E00080919F010E94100161E080919F010E9416
:1002F000E00061E080919E010E94E00020919F015A
:1003000030E0F901E255FF4F8491F901E656FF4FC5
:10031000D491F901EA57FF4FC491CC2379F08111B0
:100320000E94B700EC2FF0E0EE0FFF1FE458FF4FE4
:10033000A591B491EC91ED23C1E009F4C0E060E037
:1003400080919E010E94E00061E080919F010E94E7
:10035000100160E080919F010E94E0008C2F809549
:100360008170DF91CF911F910F91FF90EF900895D1
:10037000EF92FF920F931F93CF93DF93C82F162F07
:10038000E72E042F60E080919F010E94E000EBE0E7
:10039000F0E03197F1F760E080919E010E94E0006B
:1003A00080ED0E944C01811102C080E02CC08C2F96
:1003B0000E944C018823C9F3F12EC12FDE2D8C2F12
:1003C0008F19801730F489910E944C018111F7CF69
:1003D000ECCF60E080919F010E94E000CBE0D0E094
:1003E000CE010197F1F761E080919E010E94E0004B
:1003F000CE010197F1F761E080919F010E94E0003A
:100400002197F1F781E0DF91CF911F910F91FF903C
:10041000EF90089585ED8093BC008091BC0084FD31
:10042000FCCF10925B01089540913501262F30E0FA
:10043000240F311D21323105DCF420915B01243081
:10044000C9F4FC0180E090E0861758F43091350142
:100450002191DC01AD5EBE4FA30FB11D2C9301961F
:10046000F3CF80913501680F6093350180E00895E6
:1004700081E0089582E0089508958FEF9FEF089539
:100480008FEF9FEF08958091120190E091958195F3
:1004900091090895CF93DF9300D0CDB7DEB7CB019C
:1004A000642F49835A830E9414024981842F5A8100
:1004B000952F0F900F90DF91CF910895CF93DF93F9
:1004C0001F92CDB7DEB7698361E0CE0101960E942D
:1004D000140281E090E00F90DF91CF91089508958C
:1004E00080E090E008950E9490041F920F920FB652
:1004F0000F9211242F933F938F939F93AF93BF93AA
:100500008091860190918701A0918801B091890125
:100510003091850123E0230F2D3720F40196A11D92
:10052000B11D05C026E8230F0296A11DB11D209321
:1005300085018093860190938701A0938801B093F1
:1005400089018091810190918201A0918301B091F4
:1005500084010196A11DB11D8093810190938201B8
:10056000A0938301B0938401BF91AF919F918F912C
:100570003F912F910F900FBE0F901F9018951F92D3
:100580000F920FB60F9211242F933F934F935F93C7
:100590006F937F938F939F93AF93BF93EF93FF934B
:1005A0008091B900887F803609F49CC068F5883254
:1005B00009F45BC090F4803109F454C038F4882306
:1005C00009F4F6C0883009F44DC0F6C0883109F44A
:1005D0004CC0803209F45DC0EFC0803409F468C0BB
:1005E00048F4803309F455C0883309F0E5C080939E
:1005F0005A01D8C0803509F44FC0883509F45DC070
:10060000883409F0D9C0D6C0883909F4C7C0A8F425
:10061000883709F467C038F4883609F463C0803736
:1006200009F460C0C9C0883809F4B8C0803909F439
:100630005FC0803809F0C0C05BC0803B09F486C051
:1006400038F4803A09F466C0883A09F47FC0B4C02F
:10065000803C09F4A7C0883C09F4A4C0883B09F495
:100660008AC0AAC08091800110C090917F018091C2
:100670007E01981770F5E0917F0181E08E0F8093E5
:100680007F01F0E0E25AFE4F80818093BB0085EC51
:1006900086C080935A018EC0E0917F0181E08E0F69
:1006A00080937F018091BB00F0E0E25AFE4F80838F
:1006B00090917F0180917E016EC0E0917F0181E089
:1006C0008E0F80937F018091BB00F0E0E25AFE4FD5
:1006D000808380915D0181116DC081E080935C0118
:1006E00084EA61C083E080935B0110925901CFCF0F
:1006F00080915901803208F051C0E091590181E0A8
:100700008E0F809359018091BB00F0E0E75CFE4FB3
:100710008083BDCF85EC8093BC0010925B018091FB
:100720005901803230F4E0915901F0E0E75CFE4F6E
:1007300010826091590170E0E0913701F091380129
:1007400089E391E009951092590136C084E08093C5
:100750005B011092360110923501E0913301F09166
:100760003401099580913501811105C081E08093A4
:10077000350110921301E091360181E08E0F8093D4
:100780003601F0E0ED5EFE4F80818093BB009091DA
:10079000360180913501981708F479CF85E8809368
:1007A000BC000AC085EC8093BC0010925B0104C0C1
:1007B00010925A010E940A02FF91EF91BF91AF91EE
:1007C0009F918F917F916F915F914F913F912F9169
:1007D0000F900FBE0F901F9018951F93CF93DF932C
:1007E000EAE8F1E01382128288EE93E0A0E0B0E044
:1007F00084839583A683B78384E091E0918380838B
:10080000C6E9D1E017E0188784E0898761E00E949B
:10081000100161E089850E94E000188761E087E0AF
:100820000E94100161E08885DF91CF911F910C94A7
:10083000E000CF93DF9300D01F92CDB7DEB778945E
:1008400084B5826084BD84B5816084BD85B58260D5
:1008500085BD85B5816085BD80916E008160809386
:100860006E001092810080918100826080938100EF
:1008700080918100816080938100809180008160FF
:10088000809380008091B10084608093B10080915A
:10089000B00081608093B00080917A008460809382
:1008A0007A0080917A00826080937A0080917A0049
:1008B000816080937A0080917A00806880937A00CA
:1008C0001092C10086E68B8381E08A83898343E0AE
:1008D000BE016F5F7F4F84E00E94B80184E089838E
:1008E00041E0BE016F5F7F4F83E00E94B80188E066
:1008F0008B831A82198243E0BE016F5F7F4F80E0D5
:100900000E94B80100E010E001151105E9F30E9412
:100910000000FACFEE0FFF1F0590F491E02D09942F
:0E09200081E090E0F8940C949504F894FFCFD9
:10092E00000000005E024A0270023C0243024002D6
:02093E003D0278
:00000001FF
