:100000000C9436000C945E000C945E000C945E0020
:100010000C945E000C945E000C945E000C945E00E8
:100020000C945E000C945E000C945E000C945E00D8
:100030000C945E000C945E000C945E000C945E00C8
:100040000C9428060C945E000C945E000C945E00E8
:100050000C945E000C945E000C945E000C945E00A8
:100060000C944E020C945E008F01590511241FBEA2
:10007000CFEFD4E0DEBFCDBF11E0A0E0B1E0EEE312
:10008000F0E102C005900D92A438B107D9F711E054
:10009000A4E8B1E001C01D92A83BB107E1F710E070
:1000A000CCE6D0E004C02297FE010E941908C836B1
:1000B000D107C9F70E9423060C941D080C94000078
:1000C0000F931F93CF93DF93689F8001699F100D5B
:1000D000789F100D1124C8010E947C00EC0100974C
:1000E00029F060E070E0A8010E947E01CE01DF915E
:1000F000CF911F910F910895CF93DF93BC01823070
:10010000910510F462E070E0A091B601B091B701E2
:10011000ED01E0E0F0E040E050E021C0888199810D
:100120008617970769F48A819B81309719F093832A
:10013000828304C09093B7018093B601FE0134C05E
:100140006817790738F44115510519F08417950798
:1001500008F4AC01FE018A819B819C01E901209792
:10016000E9F641155105A9F1CA01861B970B0497C1
:1001700008F4BA01E0E0F0E02AC08D919C9111975B
:1001800084179507F9F46417750781F412968D9119
:100190009C911397309719F09383828304C09093B6
:1001A000B7018093B601FD0132964CC0CA01861B8F
:1001B000970BFD01E80FF91F6193719302978D93DF
:1001C0009C9340C0FD01828193819C01D9011097CD
:1001D000A1F68091B4019091B501892B41F48091F1
:1001E0002D0190912E019093B5018093B40140911F
:1001F0002F01509130014115510541F44DB75EB7C3
:1002000080912B0190912C01481B590B2091B40136
:100210003091B501CA01821B930B8617970780F0B6
:10022000AB014E5F5F4F8417950750F0420F531F8D
:100230005093B5014093B401F9016193719302C0E9
:10024000E0E0F0E0CF01DF91CF910895CF93DF930D
:10025000009709F450C0EC0122971B821A82A091EA
:10026000B601B091B701109709F140E050E0AC172A
:10027000BD0708F1BB83AA83FE0121913191E20FF2
:10028000F31FAE17BF0779F48D919C911197280F3A
:10029000391F2E5F3F4F3983288312968D919C9191
:1002A00013979B838A834115510571F4D093B7014D
:1002B000C093B60120C012968D919C911397AD0109
:1002C000009711F0DC01D3CFFA01D383C2832191CF
:1002D0003191E20FF31FCE17DF0769F4888199810E
:1002E000280F391F2E5F3F4FFA01318320838A8107
:1002F0009B8193838283DF91CF910895DC0101C0BC
:100300006D9341505040E0F7089581E080938D0156
:100310006093880110928B0110928C0108950895CA
:10032000DF93CF930F92CDB7DEB7698380918D01B4
:100330008823A9F080918C018032B0F480918B01E8
:10034000E0918901F0918A01E80FF11D60838091AD
:100350008B018F5F80938B0180938C0105C0CE0150
:10036000019661E00E9431020F90CF91DF910895D4
:100370000E94900108956091890170918A01809195
:10038000880140918C0121E00E94EC0110928B01C8
:1003900010928C0110928D01089580E290E061E04E
:1003A00070E00E9460008093840190938501109218
:1003B00086011092870180E290E061E070E00E9487
:1003C00060008093890190938A0110928B011092B2
:1003D0008C010E94D00308951F93582F122F413291
:1003E00010F081E03CC080918F018823E1F782E02A
:1003F00080938F018FEF8093A0011092970140931B
:100400009801A0919501B0919601FB0102C08191E4
:100410008D938E2F861B8417D0F3852F90E0880F45
:10042000991F8093900185EE8093BC00112321F0E9
:1004300080918F018230E1F38091A0018F3F11F410
:1004400080E00DC08091A001803211F482E007C0ED
:100450008091A001803311F084E001C083E01F91FE
:100460000895482F613210F081E0089580918F0146
:10047000843011F082E0089560939C01A09199016D
:10048000B0919A01842F9C01F90102C081918D9352
:100490008E2F841B8617D0F380E008951F920F9251
:1004A0000FB60F9211242F933F934F935F936F9347
:1004B0007F938F939F93AF93BF93EF93FF9380911D
:1004C000B90090E0887F90708036910509F4E2C011
:1004D00081369105CCF58832910509F47BC08932CB
:1004E0009105B4F48031910509F46FC08131910513
:1004F0003CF4009709F438C1089709F040C165C081
:100500008831910509F466C0809709F038C17FC031
:100510008034910509F4A3C08134910544F48033FB
:10052000910509F47FC0C89709F029C186C08035BC
:10053000910509F486C08835910509F495C0883481
:10054000910509F01CC19EC08839910509F404C1C8
:1005500089399105ECF48837910509F49BC08937F6
:1005600091054CF48836910509F494C080379105C3
:1005700009F005C18FC08838910509F4EDC08039B4
:10058000910509F48DC08038910509F0F8C088C044
:10059000803B910509F4B2C0813B91054CF4803A4F
:1005A000910509F491C0883A910509F0E8C0A6C008
:1005B000803C910509F4D4C0883C910509F4D0C071
:1005C000883B910509F0DBC0B1C080919001809318
:1005D000BB00C0C09091970180919801981778F462
:1005E00090919701E0919501F0919601E90FF11D2D
:1005F00080818093BB009F5F90939701ABC085ED96
:100600008093BC008091BC0084FDFCCFB6C080E22A
:100610008093A00185ED8093BC008091BC0084FD97
:10062000FCCFABC080E38093A00185ED8093BC003C
:100630008091BC0084FDFCCFA0C088E38093A00122
:100640008FC0809197019091BB00E0919501F0914E
:100650009601E80FF11D90838F5F80939701909131
:1006600097018091980174C0809197019091BB008F
:10067000E0919501F0919601E80FF11D90838F5F55
:100680008093970185ED8093BC008091BC0084FD30
:10069000FCCF73C083E080938F0110929F015AC0FA
:1006A00080919F01803208F057C080919F01909106
:1006B000BB00E0919D01F0919E01E80FF11D908338
:1006C0008F5F80939F0146C080919F01803248F4E4
:1006D00080919F01E0919D01F0919E01E80FF11D35
:1006E000108260919F01E0919301F09194018091BB
:1006F0009D0190919E0170E0099532C084E0809345
:100700008F0110929B0110929C01E0919101F09158
:100710009201099580919C01882341F481E08093A6
:100720009C01E0919901F0919A01108290919B01B6
:10073000E0919901F0919A01E90FF11D8081809378
:10074000BB009F5F90939B0190919B0180919C01C6
:10075000981710F485EC01C085E88093BC000FC0A9
:1007600085EC8093BC0009C01092A00185ED8093B8
:10077000BC008091BC0084FDFCCF10928F01FF91E2
:10078000EF91BF91AF919F918F917F916F915F9109
:100790004F913F912F910F900FBE0F901F90189582
:1007A00010928F01449A459AE9EBF0E080818E7FA8
:1007B000808380818D7F808388E48093B80085E486
:1007C0008093BC0080E290E061E070E00E946000F5
:1007D000809395019093960180E290E061E070E053
:1007E0000E9460008093990190939A0180E290E0CA
:1007F00061E070E00E94600080939D0190939E01F3
:100800000895FC0185E791E09183808362834783AB
:10081000208711860895CF92DF92EF92FF920F9377
:100820001F936C01062F8EE8E82E81E0F82EC70199
:10083000F60162810E94850110E0F601818590E059
:10084000082B192BC701B8010E94B801C7010E94EB
:10085000BB011F910F91FF90EF90DF90CF90089513
:10086000FF920F931F938C01F62E64600E940B047D
:1008700081E090E00E949A068BEFF822C8016F2D6C
:100880000E940B0482E390E00E949A061F910F9150
:10089000FF900895FF920F931F938C01F62E0E94F4
:1008A0000B04C8016F2D0E9430041F910F91FF901F
:1008B0000895EF92FF920F931F937C01162F042F40
:1008C000607F642B0E944A041295107F102BC70191
:1008D000612F0E944A041F910F91FF90EF9008959D
:1008E00041E00E945904089540E00E94590408958F
:1008F000EF92FF920F931F93CF93DF938C017A01B6
:100900006770660F660F660F60640E947404C0E033
:10091000D0E0D801ED91FC91D701AC0FBD1F019043
:10092000F081E02DC8016C9109952196C830D10560
:1009300081F7DF91CF911F910F91FF90EF90089574
:10094000FC016481862F846084836C60CF010E94E7
:1009500074040895DF93CF93CDB7DEB728970FB611
:10096000F894DEBF0FBECDBF9C01FE013196ABE710
:10097000B1E088E00D9001928150E1F7F9018681A4
:10098000841710F4482F4150E42FF0E0EE0FFF1FC2
:10099000EC0FFD1F8181680F6068C9010E9474041B
:1009A00028960FB6F894DEBF0FBECDBFCF91DF9172
:1009B000089562E00E94740480ED97E00E949A0618
:1009C000089561E00E94740480ED97E00E949A0609
:1009D0000895FC0188E08187CF0160E00E940B044C
:1009E0000895CF93DF93EC01423018F08B8188603B
:1009F0008B834E83222329F0413019F48B8184604C
:100A00008B8380E593EC0E949A06CE0169850E9453
:100A10000B0468EE73E080E090E00E947006CE0167
:100A200063E00E944A0484E991E10E949A06CE01A3
:100A300063E00E944A0484E991E10E949A06CE0193
:100A400063E00E944A0486E990E00E949A06CE0183
:100A500062E00E944A046B816062CE010E947404CD
:100A600084E08C83CE010E94A004CE010E94E104A8
:100A700082E08D83CE0166E00E947404CE010E9464
:100A8000D904DF91CF9108950F931F938C018EE8C5
:100A900091E00E94CD01F8011382C8016781408571
:100AA00020E00E94F1041F910F9108950E944405D7
:100AB000089581EA91E067E240E122E00E940104AA
:100AC00008959F92AF92BF92CF92DF92EF92FF92E2
:100AD0000F931F93992481EA91E00E94E10481EA37
:100AE00091E060E071E00E941907E92CFF2400E02A
:100AF00010E081EA91E0B801A70120E130E00E9416
:100B0000E00781EA91E069E071E00E941907492D50
:100B100050E0405F5F4F662757FD6095762F81EA72
:100B200091E020E130E00E94E00781EA91E060E09E
:100B300041E00E94AA04AA24BB246501B601A501D4
:100B40004E0D5F1D601F711F81EA91E020E030E0D3
:100B50000E94E0070894A11CB11CC11CD11C80E1BB
:100B6000A816B104C104D10449F780E1980E60EAE7
:100B70007FE080E090E00E947006ADCF0F931F935E
:100B800001EA11E0C8010E945605C8010E94E9046B
:100B9000C80160E041E351E00E947804C80161E0CF
:100BA00049E351E00E947804C80162E041E451E069
:100BB0000E947804C80163E049E451E00E9478048F
:100BC000C80164E041E551E00E947804C80165E095
:100BD00049E551E00E947804C80166E041E651E031
:100BE0000E947804C80167E049E651E00E94780459
:100BF000C8010E94D904C8016DE071E00E94190784
:100C0000C80160E041E00E94AA04C8016CE171E003
:100C10000E941907C80143E050E060E070E020E066
:100C200030E00E94E007C80160E271E00E9419070D
:100C300068E873E180E090E00E9470060E94610520
:100C40001F910F9108950E94A8060E94BE05FFCF34
:100C50001F920F920FB60F9211242F933F938F93F1
:100C60009F93AF93BF938091AF019091B001A091FA
:100C7000B101B091B2013091B3010196A11DB11D36
:100C8000232F2D5F2D3720F02D570196A11DB11D6B
:100C90002093B3018093AF019093B001A093B10171
:100CA000B093B2018091AB019091AC01A091AD01E4
:100CB000B091AE010196A11DB11D8093AB0190933F
:100CC000AC01A093AD01B093AE01BF91AF919F91E4
:100CD0008F913F912F910F900FBE0F901F901895FD
:100CE000EF92FF920F931F937B018C018FB7F894C3
:100CF0004091AF015091B0016091B1017091B2018A
:100D00008FBF2FB7F8948091AF019091B001A0915F
:100D1000B101B091B2012FBF841B950BA60BB70B8D
:100D2000E816F9060A071B0760F71F910F91FF905D
:100D3000EF900895019759F0FC01EE0FFF1FEE0FA1
:100D4000FF1F32978FB7F8943197F1F78FBF08954F
:100D5000789484B5826084BD84B5816084BD85B596
:100D6000826085BD85B5816085BDEEE6F0E080815D
:100D700081608083E1E8F0E080818260808380810F
:100D800081608083E0E8F0E0808181608083E1EB36
:100D9000F0E0808184608083E0EBF0E0808181601E
:100DA0008083EAE7F0E080818460808380818260D4
:100DB00080838081816080838081806880831092BD
:100DC000C10008950F931F93CF93DF938C01EB0124
:100DD00009C02196D801ED91FC910190F081E02DA0
:100DE000C801099568816623A1F7DF91CF911F9112
:100DF0000F910895EF92FF920F931F93CF93DF937C
:100E00008C017B01EA010CC0D7016D917D01D801F5
:100E1000ED91FC910190F081E02DC8010995219799
:100E2000209791F7DF91CF911F910F91FF90EF9055
:100E30000895DC01ED91FC910280F381E02D09958C
:100E400008952F923F924F925F926F927F928F926E
:100E50009F92AF92BF92CF92DF92EF92FF920F9349
:100E60001F93DF93CF93CDB7DEB7A0970FB6F8945B
:100E7000DEBF0FBECDBF1C016A017B0141155105CC
:100E80006105710549F4DC01ED91FC910190F0815F
:100E9000E02D60E3099554C0882499245401422E22
:100EA00055246624772401E010E00C0F1D1F080D67
:100EB000191DC701B601A30192010E94F507F801AF
:100EC00060830894811C911CA11CB11CC701B60150
:100ED000A30192010E94F507C901DA016C017D01AD
:100EE000C114D104E104F104F1F681E0E82EF12C03
:100EF000EC0EFD1EE80CF91C3E010894611C711CEF
:100F0000D501C4010197A109B1096C01C818D9081C
:100F100014C0F601EE0DFF1D60816A3010F4605DB3
:100F200001C0695CD101ED91FC910190F081E02D4F
:100F3000C10109950894E108F1086E147F0449F78E
:100F4000A0960FB6F894DEBF0FBECDBFCF91DF9154
:100F50001F910F91FF90EF90DF90CF90BF90AF90D7
:100F60009F908F907F906F905F904F903F902F90C9
:100F70000895EF92FF920F931F93CF93DF93EC01AD
:100F80007A018B0177FF0FC0E881F9810190F08130
:100F9000E02D6DE2099510950095F094E094E11C28
:100FA000F11C011D111DCE01B801A7012AE00E940C
:100FB0002107DF91CF911F910F91FF90EF9008953E
:100FC000DC012115310541F4ED91FC910190F08196
:100FD000E02D642F099508952A30310519F40E94F7
:100FE000B90708950E9421070895A1E21A2EAA1BAD
:100FF000BB1BFD010DC0AA1FBB1FEE1FFF1FA217C9
:10100000B307E407F50720F0A21BB30BE40BF50BC5
:10101000661F771F881F991F1A9469F7609570954E
:10102000809590959B01AC01BD01CF010895EE0F15
:0E103000FF1F0590F491E02D0994F894FFCF76
:10103E00436F646573203078002D30780048656CFE
:10104E006C6F20776F726C642E2E2E00206920003C
:10105E002061726475696E6F7321002000B8010003
:10106E0000040E0E0E1F0004000203020E1E0C00E2
:10107E0000000E1517110E0000000A1F1F0E0400AF
:10108E0000000C1D0F0F060000000103161C0800C7
:10109E0000001B0E040E1B0000010105091F0804B1
:1010AE0000000000007004E206FA06000040001482
:0410BE0000540000DA
:00000001FF
